{
	"contracts/MyStructs.sol": {
		"MyStruct": {
			"abi": [
				{
					"inputs": [
						{
							"internalType": "uint256",
							"name": "",
							"type": "uint256"
						}
					],
					"name": "nftlist",
					"outputs": [
						{
							"internalType": "string",
							"name": "name",
							"type": "string"
						},
						{
							"internalType": "uint256",
							"name": "dna",
							"type": "uint256"
						}
					],
					"stateMutability": "view",
					"type": "function"
				}
			],
			"devdoc": {
				"kind": "dev",
				"methods": {},
				"version": 1
			},
			"evm": {
				"assembly": "    /* \"contracts/MyStructs.sol\":74:198  contract MyStruct{\r... */\n  mstore(0x40, 0x80)\n  callvalue\n  dup1\n  iszero\n  tag_1\n  jumpi\n  0x00\n  dup1\n  revert\ntag_1:\n  pop\n  dataSize(sub_0)\n  dup1\n  dataOffset(sub_0)\n  0x00\n  codecopy\n  0x00\n  return\nstop\n\nsub_0: assembly {\n        /* \"contracts/MyStructs.sol\":74:198  contract MyStruct{\r... */\n      mstore(0x40, 0x80)\n      callvalue\n      dup1\n      iszero\n      tag_1\n      jumpi\n      0x00\n      dup1\n      revert\n    tag_1:\n      pop\n      jumpi(tag_2, lt(calldatasize, 0x04))\n      shr(0xe0, calldataload(0x00))\n      dup1\n      0x6c967a54\n      eq\n      tag_3\n      jumpi\n    tag_2:\n      0x00\n      dup1\n      revert\n        /* \"contracts/MyStructs.sol\":168:188  NFT[] public nftlist */\n    tag_3:\n      tag_4\n      0x04\n      dup1\n      calldatasize\n      sub\n      dup2\n      add\n      swap1\n      tag_5\n      swap2\n      swap1\n      tag_6\n      jump\t// in\n    tag_5:\n      tag_7\n      jump\t// in\n    tag_4:\n      mload(0x40)\n      tag_8\n      swap3\n      swap2\n      swap1\n      tag_9\n      jump\t// in\n    tag_8:\n      mload(0x40)\n      dup1\n      swap2\n      sub\n      swap1\n      return\n    tag_7:\n      0x00\n      dup2\n      dup2\n      sload\n      dup2\n      lt\n      tag_10\n      jumpi\n      0x00\n      dup1\n      revert\n    tag_10:\n      swap1\n      0x00\n      mstore\n      keccak256(0x00, 0x20)\n      swap1\n      0x02\n      mul\n      add\n      0x00\n      swap2\n      pop\n      swap1\n      pop\n      dup1\n      0x00\n      add\n      dup1\n      sload\n      tag_12\n      swap1\n      tag_13\n      jump\t// in\n    tag_12:\n      dup1\n      0x1f\n      add\n      0x20\n      dup1\n      swap2\n      div\n      mul\n      0x20\n      add\n      mload(0x40)\n      swap1\n      dup2\n      add\n      0x40\n      mstore\n      dup1\n      swap3\n      swap2\n      swap1\n      dup2\n      dup2\n      mstore\n      0x20\n      add\n      dup3\n      dup1\n      sload\n      tag_14\n      swap1\n      tag_13\n      jump\t// in\n    tag_14:\n      dup1\n      iszero\n      tag_15\n      jumpi\n      dup1\n      0x1f\n      lt\n      tag_16\n      jumpi\n      0x0100\n      dup1\n      dup4\n      sload\n      div\n      mul\n      dup4\n      mstore\n      swap2\n      0x20\n      add\n      swap2\n      jump(tag_15)\n    tag_16:\n      dup3\n      add\n      swap2\n      swap1\n      0x00\n      mstore\n      keccak256(0x00, 0x20)\n      swap1\n    tag_17:\n      dup2\n      sload\n      dup2\n      mstore\n      swap1\n      0x01\n      add\n      swap1\n      0x20\n      add\n      dup1\n      dup4\n      gt\n      tag_17\n      jumpi\n      dup3\n      swap1\n      sub\n      0x1f\n      and\n      dup3\n      add\n      swap2\n    tag_15:\n      pop\n      pop\n      pop\n      pop\n      pop\n      swap1\n      dup1\n      0x01\n      add\n      sload\n      swap1\n      pop\n      dup3\n      jump\t// out\n        /* \"#utility.yul\":7:146   */\n    tag_19:\n        /* \"#utility.yul\":53:58   */\n      0x00\n        /* \"#utility.yul\":91:97   */\n      dup2\n        /* \"#utility.yul\":78:98   */\n      calldataload\n        /* \"#utility.yul\":69:98   */\n      swap1\n      pop\n        /* \"#utility.yul\":107:140   */\n      tag_21\n        /* \"#utility.yul\":134:139   */\n      dup2\n        /* \"#utility.yul\":107:140   */\n      tag_22\n      jump\t// in\n    tag_21:\n        /* \"#utility.yul\":7:146   */\n      swap3\n      swap2\n      pop\n      pop\n      jump\t// out\n        /* \"#utility.yul\":152:481   */\n    tag_6:\n        /* \"#utility.yul\":211:217   */\n      0x00\n        /* \"#utility.yul\":260:262   */\n      0x20\n        /* \"#utility.yul\":248:257   */\n      dup3\n        /* \"#utility.yul\":239:246   */\n      dup5\n        /* \"#utility.yul\":235:258   */\n      sub\n        /* \"#utility.yul\":231:263   */\n      slt\n        /* \"#utility.yul\":228:347   */\n      iszero\n      tag_24\n      jumpi\n        /* \"#utility.yul\":266:345   */\n      tag_25\n      tag_26\n      jump\t// in\n    tag_25:\n        /* \"#utility.yul\":228:347   */\n    tag_24:\n        /* \"#utility.yul\":386:387   */\n      0x00\n        /* \"#utility.yul\":411:464   */\n      tag_27\n        /* \"#utility.yul\":456:463   */\n      dup5\n        /* \"#utility.yul\":447:453   */\n      dup3\n        /* \"#utility.yul\":436:445   */\n      dup6\n        /* \"#utility.yul\":432:454   */\n      add\n        /* \"#utility.yul\":411:464   */\n      tag_19\n      jump\t// in\n    tag_27:\n        /* \"#utility.yul\":401:464   */\n      swap2\n      pop\n        /* \"#utility.yul\":357:474   */\n      pop\n        /* \"#utility.yul\":152:481   */\n      swap3\n      swap2\n      pop\n      pop\n      jump\t// out\n        /* \"#utility.yul\":487:851   */\n    tag_28:\n        /* \"#utility.yul\":575:578   */\n      0x00\n        /* \"#utility.yul\":603:642   */\n      tag_30\n        /* \"#utility.yul\":636:641   */\n      dup3\n        /* \"#utility.yul\":603:642   */\n      tag_31\n      jump\t// in\n    tag_30:\n        /* \"#utility.yul\":658:729   */\n      tag_32\n        /* \"#utility.yul\":722:728   */\n      dup2\n        /* \"#utility.yul\":717:720   */\n      dup6\n        /* \"#utility.yul\":658:729   */\n      tag_33\n      jump\t// in\n    tag_32:\n        /* \"#utility.yul\":651:729   */\n      swap4\n      pop\n        /* \"#utility.yul\":738:790   */\n      tag_34\n        /* \"#utility.yul\":783:789   */\n      dup2\n        /* \"#utility.yul\":778:781   */\n      dup6\n        /* \"#utility.yul\":771:775   */\n      0x20\n        /* \"#utility.yul\":764:769   */\n      dup7\n        /* \"#utility.yul\":760:776   */\n      add\n        /* \"#utility.yul\":738:790   */\n      tag_35\n      jump\t// in\n    tag_34:\n        /* \"#utility.yul\":815:844   */\n      tag_36\n        /* \"#utility.yul\":837:843   */\n      dup2\n        /* \"#utility.yul\":815:844   */\n      tag_37\n      jump\t// in\n    tag_36:\n        /* \"#utility.yul\":810:813   */\n      dup5\n        /* \"#utility.yul\":806:845   */\n      add\n        /* \"#utility.yul\":799:845   */\n      swap2\n      pop\n        /* \"#utility.yul\":579:851   */\n      pop\n        /* \"#utility.yul\":487:851   */\n      swap3\n      swap2\n      pop\n      pop\n      jump\t// out\n        /* \"#utility.yul\":857:975   */\n    tag_38:\n        /* \"#utility.yul\":944:968   */\n      tag_40\n        /* \"#utility.yul\":962:967   */\n      dup2\n        /* \"#utility.yul\":944:968   */\n      tag_41\n      jump\t// in\n    tag_40:\n        /* \"#utility.yul\":939:942   */\n      dup3\n        /* \"#utility.yul\":932:969   */\n      mstore\n        /* \"#utility.yul\":857:975   */\n      pop\n      pop\n      jump\t// out\n        /* \"#utility.yul\":981:1404   */\n    tag_9:\n        /* \"#utility.yul\":1122:1126   */\n      0x00\n        /* \"#utility.yul\":1160:1162   */\n      0x40\n        /* \"#utility.yul\":1149:1158   */\n      dup3\n        /* \"#utility.yul\":1145:1163   */\n      add\n        /* \"#utility.yul\":1137:1163   */\n      swap1\n      pop\n        /* \"#utility.yul\":1209:1218   */\n      dup2\n        /* \"#utility.yul\":1203:1207   */\n      dup2\n        /* \"#utility.yul\":1199:1219   */\n      sub\n        /* \"#utility.yul\":1195:1196   */\n      0x00\n        /* \"#utility.yul\":1184:1193   */\n      dup4\n        /* \"#utility.yul\":1180:1197   */\n      add\n        /* \"#utility.yul\":1173:1220   */\n      mstore\n        /* \"#utility.yul\":1237:1315   */\n      tag_43\n        /* \"#utility.yul\":1310:1314   */\n      dup2\n        /* \"#utility.yul\":1301:1307   */\n      dup6\n        /* \"#utility.yul\":1237:1315   */\n      tag_28\n      jump\t// in\n    tag_43:\n        /* \"#utility.yul\":1229:1315   */\n      swap1\n      pop\n        /* \"#utility.yul\":1325:1397   */\n      tag_44\n        /* \"#utility.yul\":1393:1395   */\n      0x20\n        /* \"#utility.yul\":1382:1391   */\n      dup4\n        /* \"#utility.yul\":1378:1396   */\n      add\n        /* \"#utility.yul\":1369:1375   */\n      dup5\n        /* \"#utility.yul\":1325:1397   */\n      tag_38\n      jump\t// in\n    tag_44:\n        /* \"#utility.yul\":981:1404   */\n      swap4\n      swap3\n      pop\n      pop\n      pop\n      jump\t// out\n        /* \"#utility.yul\":1491:1590   */\n    tag_31:\n        /* \"#utility.yul\":1543:1549   */\n      0x00\n        /* \"#utility.yul\":1577:1582   */\n      dup2\n        /* \"#utility.yul\":1571:1583   */\n      mload\n        /* \"#utility.yul\":1561:1583   */\n      swap1\n      pop\n        /* \"#utility.yul\":1491:1590   */\n      swap2\n      swap1\n      pop\n      jump\t// out\n        /* \"#utility.yul\":1596:1765   */\n    tag_33:\n        /* \"#utility.yul\":1680:1691   */\n      0x00\n        /* \"#utility.yul\":1714:1720   */\n      dup3\n        /* \"#utility.yul\":1709:1712   */\n      dup3\n        /* \"#utility.yul\":1702:1721   */\n      mstore\n        /* \"#utility.yul\":1754:1758   */\n      0x20\n        /* \"#utility.yul\":1749:1752   */\n      dup3\n        /* \"#utility.yul\":1745:1759   */\n      add\n        /* \"#utility.yul\":1730:1759   */\n      swap1\n      pop\n        /* \"#utility.yul\":1596:1765   */\n      swap3\n      swap2\n      pop\n      pop\n      jump\t// out\n        /* \"#utility.yul\":1771:1848   */\n    tag_41:\n        /* \"#utility.yul\":1808:1815   */\n      0x00\n        /* \"#utility.yul\":1837:1842   */\n      dup2\n        /* \"#utility.yul\":1826:1842   */\n      swap1\n      pop\n        /* \"#utility.yul\":1771:1848   */\n      swap2\n      swap1\n      pop\n      jump\t// out\n        /* \"#utility.yul\":1854:2161   */\n    tag_35:\n        /* \"#utility.yul\":1922:1923   */\n      0x00\n        /* \"#utility.yul\":1932:2045   */\n    tag_51:\n        /* \"#utility.yul\":1946:1952   */\n      dup4\n        /* \"#utility.yul\":1943:1944   */\n      dup2\n        /* \"#utility.yul\":1940:1953   */\n      lt\n        /* \"#utility.yul\":1932:2045   */\n      iszero\n      tag_53\n      jumpi\n        /* \"#utility.yul\":2031:2032   */\n      dup1\n        /* \"#utility.yul\":2026:2029   */\n      dup3\n        /* \"#utility.yul\":2022:2033   */\n      add\n        /* \"#utility.yul\":2016:2034   */\n      mload\n        /* \"#utility.yul\":2012:2013   */\n      dup2\n        /* \"#utility.yul\":2007:2010   */\n      dup5\n        /* \"#utility.yul\":2003:2014   */\n      add\n        /* \"#utility.yul\":1996:2035   */\n      mstore\n        /* \"#utility.yul\":1968:1970   */\n      0x20\n        /* \"#utility.yul\":1965:1966   */\n      dup2\n        /* \"#utility.yul\":1961:1971   */\n      add\n        /* \"#utility.yul\":1956:1971   */\n      swap1\n      pop\n        /* \"#utility.yul\":1932:2045   */\n      jump(tag_51)\n    tag_53:\n        /* \"#utility.yul\":2063:2069   */\n      dup4\n        /* \"#utility.yul\":2060:2061   */\n      dup2\n        /* \"#utility.yul\":2057:2070   */\n      gt\n        /* \"#utility.yul\":2054:2155   */\n      iszero\n      tag_54\n      jumpi\n        /* \"#utility.yul\":2143:2144   */\n      0x00\n        /* \"#utility.yul\":2134:2140   */\n      dup5\n        /* \"#utility.yul\":2129:2132   */\n      dup5\n        /* \"#utility.yul\":2125:2141   */\n      add\n        /* \"#utility.yul\":2118:2145   */\n      mstore\n        /* \"#utility.yul\":2054:2155   */\n    tag_54:\n        /* \"#utility.yul\":1903:2161   */\n      pop\n        /* \"#utility.yul\":1854:2161   */\n      pop\n      pop\n      pop\n      jump\t// out\n        /* \"#utility.yul\":2167:2487   */\n    tag_13:\n        /* \"#utility.yul\":2211:2217   */\n      0x00\n        /* \"#utility.yul\":2248:2249   */\n      0x02\n        /* \"#utility.yul\":2242:2246   */\n      dup3\n        /* \"#utility.yul\":2238:2250   */\n      div\n        /* \"#utility.yul\":2228:2250   */\n      swap1\n      pop\n        /* \"#utility.yul\":2295:2296   */\n      0x01\n        /* \"#utility.yul\":2289:2293   */\n      dup3\n        /* \"#utility.yul\":2285:2297   */\n      and\n        /* \"#utility.yul\":2316:2334   */\n      dup1\n        /* \"#utility.yul\":2306:2387   */\n      tag_56\n      jumpi\n        /* \"#utility.yul\":2372:2376   */\n      0x7f\n        /* \"#utility.yul\":2364:2370   */\n      dup3\n        /* \"#utility.yul\":2360:2377   */\n      and\n        /* \"#utility.yul\":2350:2377   */\n      swap2\n      pop\n        /* \"#utility.yul\":2306:2387   */\n    tag_56:\n        /* \"#utility.yul\":2434:2436   */\n      0x20\n        /* \"#utility.yul\":2426:2432   */\n      dup3\n        /* \"#utility.yul\":2423:2437   */\n      lt\n        /* \"#utility.yul\":2403:2421   */\n      dup2\n        /* \"#utility.yul\":2400:2438   */\n      eq\n        /* \"#utility.yul\":2397:2481   */\n      iszero\n      tag_57\n      jumpi\n        /* \"#utility.yul\":2453:2471   */\n      tag_58\n      tag_59\n      jump\t// in\n    tag_58:\n        /* \"#utility.yul\":2397:2481   */\n    tag_57:\n        /* \"#utility.yul\":2218:2487   */\n      pop\n        /* \"#utility.yul\":2167:2487   */\n      swap2\n      swap1\n      pop\n      jump\t// out\n        /* \"#utility.yul\":2493:2673   */\n    tag_59:\n        /* \"#utility.yul\":2541:2618   */\n      0x4e487b7100000000000000000000000000000000000000000000000000000000\n        /* \"#utility.yul\":2538:2539   */\n      0x00\n        /* \"#utility.yul\":2531:2619   */\n      mstore\n        /* \"#utility.yul\":2638:2642   */\n      0x22\n        /* \"#utility.yul\":2635:2636   */\n      0x04\n        /* \"#utility.yul\":2628:2643   */\n      mstore\n        /* \"#utility.yul\":2662:2666   */\n      0x24\n        /* \"#utility.yul\":2659:2660   */\n      0x00\n        /* \"#utility.yul\":2652:2667   */\n      revert\n        /* \"#utility.yul\":2802:2919   */\n    tag_26:\n        /* \"#utility.yul\":2911:2912   */\n      0x00\n        /* \"#utility.yul\":2908:2909   */\n      dup1\n        /* \"#utility.yul\":2901:2913   */\n      revert\n        /* \"#utility.yul\":2925:3027   */\n    tag_37:\n        /* \"#utility.yul\":2966:2972   */\n      0x00\n        /* \"#utility.yul\":3017:3019   */\n      0x1f\n        /* \"#utility.yul\":3013:3020   */\n      not\n        /* \"#utility.yul\":3008:3010   */\n      0x1f\n        /* \"#utility.yul\":3001:3006   */\n      dup4\n        /* \"#utility.yul\":2997:3011   */\n      add\n        /* \"#utility.yul\":2993:3021   */\n      and\n        /* \"#utility.yul\":2983:3021   */\n      swap1\n      pop\n        /* \"#utility.yul\":2925:3027   */\n      swap2\n      swap1\n      pop\n      jump\t// out\n        /* \"#utility.yul\":3033:3155   */\n    tag_22:\n        /* \"#utility.yul\":3106:3130   */\n      tag_66\n        /* \"#utility.yul\":3124:3129   */\n      dup2\n        /* \"#utility.yul\":3106:3130   */\n      tag_41\n      jump\t// in\n    tag_66:\n        /* \"#utility.yul\":3099:3104   */\n      dup2\n        /* \"#utility.yul\":3096:3131   */\n      eq\n        /* \"#utility.yul\":3086:3149   */\n      tag_67\n      jumpi\n        /* \"#utility.yul\":3145:3146   */\n      0x00\n        /* \"#utility.yul\":3142:3143   */\n      dup1\n        /* \"#utility.yul\":3135:3147   */\n      revert\n        /* \"#utility.yul\":3086:3149   */\n    tag_67:\n        /* \"#utility.yul\":3033:3155   */\n      pop\n      jump\t// out\n\n    auxdata: 0xa26469706673582212207f684b1f97be8cc46eb9e231c5f643f83730cc669dce2512233a90499c5b146b64736f6c63430008070033\n}\n",
				"bytecode": {
					"linkReferences": {},
					"object": "608060405234801561001057600080fd5b506102f4806100206000396000f3fe608060405234801561001057600080fd5b506004361061002b5760003560e01c80636c967a5414610030575b600080fd5b61004a60048036038101906100459190610132565b610061565b6040516100589291906101a7565b60405180910390f35b6000818154811061007157600080fd5b906000526020600020906002020160009150905080600001805461009490610230565b80601f01602080910402602001604051908101604052809291908181526020018280546100c090610230565b801561010d5780601f106100e25761010080835404028352916020019161010d565b820191906000526020600020905b8154815290600101906020018083116100f057829003601f168201915b5050505050908060010154905082565b60008135905061012c816102a7565b92915050565b60006020828403121561014857610147610291565b5b60006101568482850161011d565b91505092915050565b600061016a826101d7565b61017481856101e2565b93506101848185602086016101fd565b61018d81610296565b840191505092915050565b6101a1816101f3565b82525050565b600060408201905081810360008301526101c1818561015f565b90506101d06020830184610198565b9392505050565b600081519050919050565b600082825260208201905092915050565b6000819050919050565b60005b8381101561021b578082015181840152602081019050610200565b8381111561022a576000848401525b50505050565b6000600282049050600182168061024857607f821691505b6020821081141561025c5761025b610262565b5b50919050565b7f4e487b7100000000000000000000000000000000000000000000000000000000600052602260045260246000fd5b600080fd5b6000601f19601f8301169050919050565b6102b0816101f3565b81146102bb57600080fd5b5056fea26469706673582212207f684b1f97be8cc46eb9e231c5f643f83730cc669dce2512233a90499c5b146b64736f6c63430008070033",
					"opcodes": "PUSH1 0x80 PUSH1 0x40 MSTORE CALLVALUE DUP1 ISZERO PUSH2 0x10 JUMPI PUSH1 0x0 DUP1 REVERT JUMPDEST POP PUSH2 0x2F4 DUP1 PUSH2 0x20 PUSH1 0x0 CODECOPY PUSH1 0x0 RETURN INVALID PUSH1 0x80 PUSH1 0x40 MSTORE CALLVALUE DUP1 ISZERO PUSH2 0x10 JUMPI PUSH1 0x0 DUP1 REVERT JUMPDEST POP PUSH1 0x4 CALLDATASIZE LT PUSH2 0x2B JUMPI PUSH1 0x0 CALLDATALOAD PUSH1 0xE0 SHR DUP1 PUSH4 0x6C967A54 EQ PUSH2 0x30 JUMPI JUMPDEST PUSH1 0x0 DUP1 REVERT JUMPDEST PUSH2 0x4A PUSH1 0x4 DUP1 CALLDATASIZE SUB DUP2 ADD SWAP1 PUSH2 0x45 SWAP2 SWAP1 PUSH2 0x132 JUMP JUMPDEST PUSH2 0x61 JUMP JUMPDEST PUSH1 0x40 MLOAD PUSH2 0x58 SWAP3 SWAP2 SWAP1 PUSH2 0x1A7 JUMP JUMPDEST PUSH1 0x40 MLOAD DUP1 SWAP2 SUB SWAP1 RETURN JUMPDEST PUSH1 0x0 DUP2 DUP2 SLOAD DUP2 LT PUSH2 0x71 JUMPI PUSH1 0x0 DUP1 REVERT JUMPDEST SWAP1 PUSH1 0x0 MSTORE PUSH1 0x20 PUSH1 0x0 KECCAK256 SWAP1 PUSH1 0x2 MUL ADD PUSH1 0x0 SWAP2 POP SWAP1 POP DUP1 PUSH1 0x0 ADD DUP1 SLOAD PUSH2 0x94 SWAP1 PUSH2 0x230 JUMP JUMPDEST DUP1 PUSH1 0x1F ADD PUSH1 0x20 DUP1 SWAP2 DIV MUL PUSH1 0x20 ADD PUSH1 0x40 MLOAD SWAP1 DUP2 ADD PUSH1 0x40 MSTORE DUP1 SWAP3 SWAP2 SWAP1 DUP2 DUP2 MSTORE PUSH1 0x20 ADD DUP3 DUP1 SLOAD PUSH2 0xC0 SWAP1 PUSH2 0x230 JUMP JUMPDEST DUP1 ISZERO PUSH2 0x10D JUMPI DUP1 PUSH1 0x1F LT PUSH2 0xE2 JUMPI PUSH2 0x100 DUP1 DUP4 SLOAD DIV MUL DUP4 MSTORE SWAP2 PUSH1 0x20 ADD SWAP2 PUSH2 0x10D JUMP JUMPDEST DUP3 ADD SWAP2 SWAP1 PUSH1 0x0 MSTORE PUSH1 0x20 PUSH1 0x0 KECCAK256 SWAP1 JUMPDEST DUP2 SLOAD DUP2 MSTORE SWAP1 PUSH1 0x1 ADD SWAP1 PUSH1 0x20 ADD DUP1 DUP4 GT PUSH2 0xF0 JUMPI DUP3 SWAP1 SUB PUSH1 0x1F AND DUP3 ADD SWAP2 JUMPDEST POP POP POP POP POP SWAP1 DUP1 PUSH1 0x1 ADD SLOAD SWAP1 POP DUP3 JUMP JUMPDEST PUSH1 0x0 DUP2 CALLDATALOAD SWAP1 POP PUSH2 0x12C DUP2 PUSH2 0x2A7 JUMP JUMPDEST SWAP3 SWAP2 POP POP JUMP JUMPDEST PUSH1 0x0 PUSH1 0x20 DUP3 DUP5 SUB SLT ISZERO PUSH2 0x148 JUMPI PUSH2 0x147 PUSH2 0x291 JUMP JUMPDEST JUMPDEST PUSH1 0x0 PUSH2 0x156 DUP5 DUP3 DUP6 ADD PUSH2 0x11D JUMP JUMPDEST SWAP2 POP POP SWAP3 SWAP2 POP POP JUMP JUMPDEST PUSH1 0x0 PUSH2 0x16A DUP3 PUSH2 0x1D7 JUMP JUMPDEST PUSH2 0x174 DUP2 DUP6 PUSH2 0x1E2 JUMP JUMPDEST SWAP4 POP PUSH2 0x184 DUP2 DUP6 PUSH1 0x20 DUP7 ADD PUSH2 0x1FD JUMP JUMPDEST PUSH2 0x18D DUP2 PUSH2 0x296 JUMP JUMPDEST DUP5 ADD SWAP2 POP POP SWAP3 SWAP2 POP POP JUMP JUMPDEST PUSH2 0x1A1 DUP2 PUSH2 0x1F3 JUMP JUMPDEST DUP3 MSTORE POP POP JUMP JUMPDEST PUSH1 0x0 PUSH1 0x40 DUP3 ADD SWAP1 POP DUP2 DUP2 SUB PUSH1 0x0 DUP4 ADD MSTORE PUSH2 0x1C1 DUP2 DUP6 PUSH2 0x15F JUMP JUMPDEST SWAP1 POP PUSH2 0x1D0 PUSH1 0x20 DUP4 ADD DUP5 PUSH2 0x198 JUMP JUMPDEST SWAP4 SWAP3 POP POP POP JUMP JUMPDEST PUSH1 0x0 DUP2 MLOAD SWAP1 POP SWAP2 SWAP1 POP JUMP JUMPDEST PUSH1 0x0 DUP3 DUP3 MSTORE PUSH1 0x20 DUP3 ADD SWAP1 POP SWAP3 SWAP2 POP POP JUMP JUMPDEST PUSH1 0x0 DUP2 SWAP1 POP SWAP2 SWAP1 POP JUMP JUMPDEST PUSH1 0x0 JUMPDEST DUP4 DUP2 LT ISZERO PUSH2 0x21B JUMPI DUP1 DUP3 ADD MLOAD DUP2 DUP5 ADD MSTORE PUSH1 0x20 DUP2 ADD SWAP1 POP PUSH2 0x200 JUMP JUMPDEST DUP4 DUP2 GT ISZERO PUSH2 0x22A JUMPI PUSH1 0x0 DUP5 DUP5 ADD MSTORE JUMPDEST POP POP POP POP JUMP JUMPDEST PUSH1 0x0 PUSH1 0x2 DUP3 DIV SWAP1 POP PUSH1 0x1 DUP3 AND DUP1 PUSH2 0x248 JUMPI PUSH1 0x7F DUP3 AND SWAP2 POP JUMPDEST PUSH1 0x20 DUP3 LT DUP2 EQ ISZERO PUSH2 0x25C JUMPI PUSH2 0x25B PUSH2 0x262 JUMP JUMPDEST JUMPDEST POP SWAP2 SWAP1 POP JUMP JUMPDEST PUSH32 0x4E487B7100000000000000000000000000000000000000000000000000000000 PUSH1 0x0 MSTORE PUSH1 0x22 PUSH1 0x4 MSTORE PUSH1 0x24 PUSH1 0x0 REVERT JUMPDEST PUSH1 0x0 DUP1 REVERT JUMPDEST PUSH1 0x0 PUSH1 0x1F NOT PUSH1 0x1F DUP4 ADD AND SWAP1 POP SWAP2 SWAP1 POP JUMP JUMPDEST PUSH2 0x2B0 DUP2 PUSH2 0x1F3 JUMP JUMPDEST DUP2 EQ PUSH2 0x2BB JUMPI PUSH1 0x0 DUP1 REVERT JUMPDEST POP JUMP INVALID LOG2 PUSH5 0x6970667358 0x22 SLT KECCAK256 PUSH32 0x684B1F97BE8CC46EB9E231C5F643F83730CC669DCE2512233A90499C5B146B64 PUSH20 0x6F6C634300080700330000000000000000000000 "
				},
				"gasEstimates": {
					"creation": {
						"codeDepositCost": "151200",
						"executionCost": "196",
						"totalCost": "151396"
					},
					"external": {
						"nftlist(uint256)": "infinite"
					}
				},
				"methodIdentifiers": {
					"nftlist(uint256)": "6c967a54"
				}
			},
			"storageLayout": {
				"storage": [
					{
						"astId": 10,
						"contract": "contracts/MyStructs.sol:MyStruct",
						"label": "nftlist",
						"offset": 0,
						"slot": "0",
						"type": "t_array(t_struct(NFT)6_storage)dyn_storage"
					}
				],
				"types": {
					"t_array(t_struct(NFT)6_storage)dyn_storage": {
						"base": "t_struct(NFT)6_storage",
						"encoding": "dynamic_array",
						"label": "struct MyStruct.NFT[]",
						"numberOfBytes": "32"
					},
					"t_string_storage": {
						"encoding": "bytes",
						"label": "string",
						"numberOfBytes": "32"
					},
					"t_struct(NFT)6_storage": {
						"encoding": "inplace",
						"label": "struct MyStruct.NFT",
						"members": [
							{
								"astId": 3,
								"contract": "contracts/MyStructs.sol:MyStruct",
								"label": "name",
								"offset": 0,
								"slot": "0",
								"type": "t_string_storage"
							},
							{
								"astId": 5,
								"contract": "contracts/MyStructs.sol:MyStruct",
								"label": "dna",
								"offset": 0,
								"slot": "1",
								"type": "t_uint256"
							}
						],
						"numberOfBytes": "64"
					},
					"t_uint256": {
						"encoding": "inplace",
						"label": "uint256",
						"numberOfBytes": "32"
					}
				}
			},
			"userdoc": {
				"kind": "user",
				"methods": {},
				"version": 1
			}
		}
	}
}