{
	"contracts/MyStructs.sol": {
		"MyStruct": {
			"abi": [
				{
					"inputs": [
						{
							"internalType": "string",
							"name": "_name",
							"type": "string"
						},
						{
							"internalType": "uint256",
							"name": "_dna",
							"type": "uint256"
						}
					],
					"name": "addNFT",
					"outputs": [],
					"stateMutability": "nonpayable",
					"type": "function"
				},
				{
					"inputs": [
						{
							"internalType": "uint256",
							"name": "_index",
							"type": "uint256"
						}
					],
					"name": "getNftName",
					"outputs": [
						{
							"internalType": "string",
							"name": "",
							"type": "string"
						}
					],
					"stateMutability": "view",
					"type": "function"
				},
				{
					"inputs": [
						{
							"internalType": "uint256",
							"name": "",
							"type": "uint256"
						}
					],
					"name": "nftlist",
					"outputs": [
						{
							"internalType": "string",
							"name": "name",
							"type": "string"
						},
						{
							"internalType": "uint256",
							"name": "dna",
							"type": "uint256"
						}
					],
					"stateMutability": "view",
					"type": "function"
				},
				{
					"inputs": [
						{
							"internalType": "uint256",
							"name": "_index",
							"type": "uint256"
						},
						{
							"internalType": "string",
							"name": "_name",
							"type": "string"
						}
					],
					"name": "updateNFT",
					"outputs": [],
					"stateMutability": "nonpayable",
					"type": "function"
				}
			],
			"devdoc": {
				"kind": "dev",
				"methods": {},
				"version": 1
			},
			"evm": {
				"assembly": "    /* \"contracts/MyStructs.sol\":74:540  contract MyStruct{\r... */\n  mstore(0x40, 0x80)\n  callvalue\n  dup1\n  iszero\n  tag_1\n  jumpi\n  0x00\n  dup1\n  revert\ntag_1:\n  pop\n  dataSize(sub_0)\n  dup1\n  dataOffset(sub_0)\n  0x00\n  codecopy\n  0x00\n  return\nstop\n\nsub_0: assembly {\n        /* \"contracts/MyStructs.sol\":74:540  contract MyStruct{\r... */\n      mstore(0x40, 0x80)\n      callvalue\n      dup1\n      iszero\n      tag_1\n      jumpi\n      0x00\n      dup1\n      revert\n    tag_1:\n      pop\n      jumpi(tag_2, lt(calldatasize, 0x04))\n      shr(0xe0, calldataload(0x00))\n      dup1\n      0x278ec44f\n      eq\n      tag_3\n      jumpi\n      dup1\n      0x6c967a54\n      eq\n      tag_4\n      jumpi\n      dup1\n      0xc318d8f8\n      eq\n      tag_5\n      jumpi\n      dup1\n      0xe386a7ca\n      eq\n      tag_6\n      jumpi\n    tag_2:\n      0x00\n      dup1\n      revert\n        /* \"contracts/MyStructs.sol\":421:537  function getNftName(uint256 _index) public view returns(string memory){\r... */\n    tag_3:\n      tag_7\n      0x04\n      dup1\n      calldatasize\n      sub\n      dup2\n      add\n      swap1\n      tag_8\n      swap2\n      swap1\n      tag_9\n      jump\t// in\n    tag_8:\n      tag_10\n      jump\t// in\n    tag_7:\n      mload(0x40)\n      tag_11\n      swap2\n      swap1\n      tag_12\n      jump\t// in\n    tag_11:\n      mload(0x40)\n      dup1\n      swap2\n      sub\n      swap1\n      return\n        /* \"contracts/MyStructs.sol\":168:188  NFT[] public nftlist */\n    tag_4:\n      tag_13\n      0x04\n      dup1\n      calldatasize\n      sub\n      dup2\n      add\n      swap1\n      tag_14\n      swap2\n      swap1\n      tag_9\n      jump\t// in\n    tag_14:\n      tag_15\n      jump\t// in\n    tag_13:\n      mload(0x40)\n      tag_16\n      swap3\n      swap2\n      swap1\n      tag_17\n      jump\t// in\n    tag_16:\n      mload(0x40)\n      dup1\n      swap2\n      sub\n      swap1\n      return\n        /* \"contracts/MyStructs.sol\":343:415  function updateNFT(uint256 _index, string memory _name) public{\r... */\n    tag_5:\n      tag_18\n      0x04\n      dup1\n      calldatasize\n      sub\n      dup2\n      add\n      swap1\n      tag_19\n      swap2\n      swap1\n      tag_20\n      jump\t// in\n    tag_19:\n      tag_21\n      jump\t// in\n    tag_18:\n      stop\n        /* \"contracts/MyStructs.sol\":195:337  function addNFT(string memory _name, uint256 _dna)public{\r... */\n    tag_6:\n      tag_22\n      0x04\n      dup1\n      calldatasize\n      sub\n      dup2\n      add\n      swap1\n      tag_23\n      swap2\n      swap1\n      tag_24\n      jump\t// in\n    tag_23:\n      tag_25\n      jump\t// in\n    tag_22:\n      stop\n        /* \"contracts/MyStructs.sol\":421:537  function getNftName(uint256 _index) public view returns(string memory){\r... */\n    tag_10:\n        /* \"contracts/MyStructs.sol\":477:490  string memory */\n      0x60\n        /* \"contracts/MyStructs.sol\":509:516  nftlist */\n      0x00\n        /* \"contracts/MyStructs.sol\":517:523  _index */\n      dup3\n        /* \"contracts/MyStructs.sol\":509:524  nftlist[_index] */\n      dup2\n      sload\n      dup2\n      lt\n      tag_27\n      jumpi\n      tag_28\n      tag_29\n      jump\t// in\n    tag_28:\n    tag_27:\n      swap1\n      0x00\n      mstore\n      keccak256(0x00, 0x20)\n      swap1\n      0x02\n      mul\n      add\n        /* \"contracts/MyStructs.sol\":509:529  nftlist[_index].name */\n      0x00\n      add\n        /* \"contracts/MyStructs.sol\":502:529  return nftlist[_index].name */\n      dup1\n      sload\n      tag_31\n      swap1\n      tag_32\n      jump\t// in\n    tag_31:\n      dup1\n      0x1f\n      add\n      0x20\n      dup1\n      swap2\n      div\n      mul\n      0x20\n      add\n      mload(0x40)\n      swap1\n      dup2\n      add\n      0x40\n      mstore\n      dup1\n      swap3\n      swap2\n      swap1\n      dup2\n      dup2\n      mstore\n      0x20\n      add\n      dup3\n      dup1\n      sload\n      tag_33\n      swap1\n      tag_32\n      jump\t// in\n    tag_33:\n      dup1\n      iszero\n      tag_34\n      jumpi\n      dup1\n      0x1f\n      lt\n      tag_35\n      jumpi\n      0x0100\n      dup1\n      dup4\n      sload\n      div\n      mul\n      dup4\n      mstore\n      swap2\n      0x20\n      add\n      swap2\n      jump(tag_34)\n    tag_35:\n      dup3\n      add\n      swap2\n      swap1\n      0x00\n      mstore\n      keccak256(0x00, 0x20)\n      swap1\n    tag_36:\n      dup2\n      sload\n      dup2\n      mstore\n      swap1\n      0x01\n      add\n      swap1\n      0x20\n      add\n      dup1\n      dup4\n      gt\n      tag_36\n      jumpi\n      dup3\n      swap1\n      sub\n      0x1f\n      and\n      dup3\n      add\n      swap2\n    tag_34:\n      pop\n      pop\n      pop\n      pop\n      pop\n      swap1\n      pop\n        /* \"contracts/MyStructs.sol\":421:537  function getNftName(uint256 _index) public view returns(string memory){\r... */\n      swap2\n      swap1\n      pop\n      jump\t// out\n        /* \"contracts/MyStructs.sol\":168:188  NFT[] public nftlist */\n    tag_15:\n      0x00\n      dup2\n      dup2\n      sload\n      dup2\n      lt\n      tag_37\n      jumpi\n      0x00\n      dup1\n      revert\n    tag_37:\n      swap1\n      0x00\n      mstore\n      keccak256(0x00, 0x20)\n      swap1\n      0x02\n      mul\n      add\n      0x00\n      swap2\n      pop\n      swap1\n      pop\n      dup1\n      0x00\n      add\n      dup1\n      sload\n      tag_39\n      swap1\n      tag_32\n      jump\t// in\n    tag_39:\n      dup1\n      0x1f\n      add\n      0x20\n      dup1\n      swap2\n      div\n      mul\n      0x20\n      add\n      mload(0x40)\n      swap1\n      dup2\n      add\n      0x40\n      mstore\n      dup1\n      swap3\n      swap2\n      swap1\n      dup2\n      dup2\n      mstore\n      0x20\n      add\n      dup3\n      dup1\n      sload\n      tag_40\n      swap1\n      tag_32\n      jump\t// in\n    tag_40:\n      dup1\n      iszero\n      tag_41\n      jumpi\n      dup1\n      0x1f\n      lt\n      tag_42\n      jumpi\n      0x0100\n      dup1\n      dup4\n      sload\n      div\n      mul\n      dup4\n      mstore\n      swap2\n      0x20\n      add\n      swap2\n      jump(tag_41)\n    tag_42:\n      dup3\n      add\n      swap2\n      swap1\n      0x00\n      mstore\n      keccak256(0x00, 0x20)\n      swap1\n    tag_43:\n      dup2\n      sload\n      dup2\n      mstore\n      swap1\n      0x01\n      add\n      swap1\n      0x20\n      add\n      dup1\n      dup4\n      gt\n      tag_43\n      jumpi\n      dup3\n      swap1\n      sub\n      0x1f\n      and\n      dup3\n      add\n      swap2\n    tag_41:\n      pop\n      pop\n      pop\n      pop\n      pop\n      swap1\n      dup1\n      0x01\n      add\n      sload\n      swap1\n      pop\n      dup3\n      jump\t// out\n        /* \"contracts/MyStructs.sol\":343:415  function updateNFT(uint256 _index, string memory _name) public{\r... */\n    tag_21:\n      pop\n      pop\n      jump\t// out\n        /* \"contracts/MyStructs.sol\":195:337  function addNFT(string memory _name, uint256 _dna)public{\r... */\n    tag_25:\n        /* \"contracts/MyStructs.sol\":262:279  NFT memory newNFT */\n      0x00\n        /* \"contracts/MyStructs.sol\":282:298  NFT(_name, _dna) */\n      mload(0x40)\n      dup1\n      0x40\n      add\n      0x40\n      mstore\n      dup1\n        /* \"contracts/MyStructs.sol\":286:291  _name */\n      dup5\n        /* \"contracts/MyStructs.sol\":282:298  NFT(_name, _dna) */\n      dup2\n      mstore\n      0x20\n      add\n        /* \"contracts/MyStructs.sol\":293:297  _dna */\n      dup4\n        /* \"contracts/MyStructs.sol\":282:298  NFT(_name, _dna) */\n      dup2\n      mstore\n      pop\n        /* \"contracts/MyStructs.sol\":262:298  NFT memory newNFT = NFT(_name, _dna) */\n      swap1\n      pop\n        /* \"contracts/MyStructs.sol\":309:316  nftlist */\n      0x00\n        /* \"contracts/MyStructs.sol\":322:328  newNFT */\n      dup2\n        /* \"contracts/MyStructs.sol\":309:329  nftlist.push(newNFT) */\n      swap1\n      dup1\n      0x01\n      dup2\n      sload\n      add\n      dup1\n      dup3\n      sstore\n      dup1\n      swap2\n      pop\n      pop\n      0x01\n      swap1\n      sub\n      swap1\n      0x00\n      mstore\n      keccak256(0x00, 0x20)\n      swap1\n      0x02\n      mul\n      add\n      0x00\n      swap1\n      swap2\n      swap1\n      swap2\n      swap1\n      swap2\n      pop\n      0x00\n      dup3\n      add\n      mload\n      dup2\n      0x00\n      add\n      swap1\n      dup1\n      mload\n      swap1\n      0x20\n      add\n      swap1\n      tag_47\n      swap3\n      swap2\n      swap1\n      tag_48\n      jump\t// in\n    tag_47:\n      pop\n      0x20\n      dup3\n      add\n      mload\n      dup2\n      0x01\n      add\n      sstore\n      pop\n      pop\n        /* \"contracts/MyStructs.sol\":251:337  {\r... */\n      pop\n        /* \"contracts/MyStructs.sol\":195:337  function addNFT(string memory _name, uint256 _dna)public{\r... */\n      pop\n      pop\n      jump\t// out\n    tag_48:\n      dup3\n      dup1\n      sload\n      tag_49\n      swap1\n      tag_32\n      jump\t// in\n    tag_49:\n      swap1\n      0x00\n      mstore\n      keccak256(0x00, 0x20)\n      swap1\n      0x1f\n      add\n      0x20\n      swap1\n      div\n      dup2\n      add\n      swap3\n      dup3\n      tag_51\n      jumpi\n      0x00\n      dup6\n      sstore\n      jump(tag_50)\n    tag_51:\n      dup3\n      0x1f\n      lt\n      tag_52\n      jumpi\n      dup1\n      mload\n      not(0xff)\n      and\n      dup4\n      dup1\n      add\n      or\n      dup6\n      sstore\n      jump(tag_50)\n    tag_52:\n      dup3\n      dup1\n      add\n      0x01\n      add\n      dup6\n      sstore\n      dup3\n      iszero\n      tag_50\n      jumpi\n      swap2\n      dup3\n      add\n    tag_53:\n      dup3\n      dup2\n      gt\n      iszero\n      tag_54\n      jumpi\n      dup3\n      mload\n      dup3\n      sstore\n      swap2\n      0x20\n      add\n      swap2\n      swap1\n      0x01\n      add\n      swap1\n      jump(tag_53)\n    tag_54:\n    tag_50:\n      pop\n      swap1\n      pop\n      tag_55\n      swap2\n      swap1\n      tag_56\n      jump\t// in\n    tag_55:\n      pop\n      swap1\n      jump\t// out\n    tag_56:\n    tag_57:\n      dup1\n      dup3\n      gt\n      iszero\n      tag_58\n      jumpi\n      0x00\n      dup2\n      0x00\n      swap1\n      sstore\n      pop\n      0x01\n      add\n      jump(tag_57)\n    tag_58:\n      pop\n      swap1\n      jump\t// out\n        /* \"#utility.yul\":7:419   */\n    tag_60:\n        /* \"#utility.yul\":85:90   */\n      0x00\n        /* \"#utility.yul\":110:176   */\n      tag_62\n        /* \"#utility.yul\":126:175   */\n      tag_63\n        /* \"#utility.yul\":168:174   */\n      dup5\n        /* \"#utility.yul\":126:175   */\n      tag_64\n      jump\t// in\n    tag_63:\n        /* \"#utility.yul\":110:176   */\n      tag_65\n      jump\t// in\n    tag_62:\n        /* \"#utility.yul\":101:176   */\n      swap1\n      pop\n        /* \"#utility.yul\":199:205   */\n      dup3\n        /* \"#utility.yul\":192:197   */\n      dup2\n        /* \"#utility.yul\":185:206   */\n      mstore\n        /* \"#utility.yul\":237:241   */\n      0x20\n        /* \"#utility.yul\":230:235   */\n      dup2\n        /* \"#utility.yul\":226:242   */\n      add\n        /* \"#utility.yul\":275:278   */\n      dup5\n        /* \"#utility.yul\":266:272   */\n      dup5\n        /* \"#utility.yul\":261:264   */\n      dup5\n        /* \"#utility.yul\":257:273   */\n      add\n        /* \"#utility.yul\":254:279   */\n      gt\n        /* \"#utility.yul\":251:363   */\n      iszero\n      tag_66\n      jumpi\n        /* \"#utility.yul\":282:361   */\n      tag_67\n      tag_68\n      jump\t// in\n    tag_67:\n        /* \"#utility.yul\":251:363   */\n    tag_66:\n        /* \"#utility.yul\":372:413   */\n      tag_69\n        /* \"#utility.yul\":406:412   */\n      dup5\n        /* \"#utility.yul\":401:404   */\n      dup3\n        /* \"#utility.yul\":396:399   */\n      dup6\n        /* \"#utility.yul\":372:413   */\n      tag_70\n      jump\t// in\n    tag_69:\n        /* \"#utility.yul\":91:419   */\n      pop\n        /* \"#utility.yul\":7:419   */\n      swap4\n      swap3\n      pop\n      pop\n      pop\n      jump\t// out\n        /* \"#utility.yul\":439:779   */\n    tag_71:\n        /* \"#utility.yul\":495:500   */\n      0x00\n        /* \"#utility.yul\":544:547   */\n      dup3\n        /* \"#utility.yul\":537:541   */\n      0x1f\n        /* \"#utility.yul\":529:535   */\n      dup4\n        /* \"#utility.yul\":525:542   */\n      add\n        /* \"#utility.yul\":521:548   */\n      slt\n        /* \"#utility.yul\":511:633   */\n      tag_73\n      jumpi\n        /* \"#utility.yul\":552:631   */\n      tag_74\n      tag_75\n      jump\t// in\n    tag_74:\n        /* \"#utility.yul\":511:633   */\n    tag_73:\n        /* \"#utility.yul\":669:675   */\n      dup2\n        /* \"#utility.yul\":656:676   */\n      calldataload\n        /* \"#utility.yul\":694:773   */\n      tag_76\n        /* \"#utility.yul\":769:772   */\n      dup5\n        /* \"#utility.yul\":761:767   */\n      dup3\n        /* \"#utility.yul\":754:758   */\n      0x20\n        /* \"#utility.yul\":746:752   */\n      dup7\n        /* \"#utility.yul\":742:759   */\n      add\n        /* \"#utility.yul\":694:773   */\n      tag_60\n      jump\t// in\n    tag_76:\n        /* \"#utility.yul\":685:773   */\n      swap2\n      pop\n        /* \"#utility.yul\":501:779   */\n      pop\n        /* \"#utility.yul\":439:779   */\n      swap3\n      swap2\n      pop\n      pop\n      jump\t// out\n        /* \"#utility.yul\":785:924   */\n    tag_77:\n        /* \"#utility.yul\":831:836   */\n      0x00\n        /* \"#utility.yul\":869:875   */\n      dup2\n        /* \"#utility.yul\":856:876   */\n      calldataload\n        /* \"#utility.yul\":847:876   */\n      swap1\n      pop\n        /* \"#utility.yul\":885:918   */\n      tag_79\n        /* \"#utility.yul\":912:917   */\n      dup2\n        /* \"#utility.yul\":885:918   */\n      tag_80\n      jump\t// in\n    tag_79:\n        /* \"#utility.yul\":785:924   */\n      swap3\n      swap2\n      pop\n      pop\n      jump\t// out\n        /* \"#utility.yul\":930:1584   */\n    tag_24:\n        /* \"#utility.yul\":1008:1014   */\n      0x00\n        /* \"#utility.yul\":1016:1022   */\n      dup1\n        /* \"#utility.yul\":1065:1067   */\n      0x40\n        /* \"#utility.yul\":1053:1062   */\n      dup4\n        /* \"#utility.yul\":1044:1051   */\n      dup6\n        /* \"#utility.yul\":1040:1063   */\n      sub\n        /* \"#utility.yul\":1036:1068   */\n      slt\n        /* \"#utility.yul\":1033:1152   */\n      iszero\n      tag_82\n      jumpi\n        /* \"#utility.yul\":1071:1150   */\n      tag_83\n      tag_84\n      jump\t// in\n    tag_83:\n        /* \"#utility.yul\":1033:1152   */\n    tag_82:\n        /* \"#utility.yul\":1219:1220   */\n      0x00\n        /* \"#utility.yul\":1208:1217   */\n      dup4\n        /* \"#utility.yul\":1204:1221   */\n      add\n        /* \"#utility.yul\":1191:1222   */\n      calldataload\n        /* \"#utility.yul\":1249:1267   */\n      0xffffffffffffffff\n        /* \"#utility.yul\":1241:1247   */\n      dup2\n        /* \"#utility.yul\":1238:1268   */\n      gt\n        /* \"#utility.yul\":1235:1352   */\n      iszero\n      tag_85\n      jumpi\n        /* \"#utility.yul\":1271:1350   */\n      tag_86\n      tag_87\n      jump\t// in\n    tag_86:\n        /* \"#utility.yul\":1235:1352   */\n    tag_85:\n        /* \"#utility.yul\":1376:1439   */\n      tag_88\n        /* \"#utility.yul\":1431:1438   */\n      dup6\n        /* \"#utility.yul\":1422:1428   */\n      dup3\n        /* \"#utility.yul\":1411:1420   */\n      dup7\n        /* \"#utility.yul\":1407:1429   */\n      add\n        /* \"#utility.yul\":1376:1439   */\n      tag_71\n      jump\t// in\n    tag_88:\n        /* \"#utility.yul\":1366:1439   */\n      swap3\n      pop\n        /* \"#utility.yul\":1162:1449   */\n      pop\n        /* \"#utility.yul\":1488:1490   */\n      0x20\n        /* \"#utility.yul\":1514:1567   */\n      tag_89\n        /* \"#utility.yul\":1559:1566   */\n      dup6\n        /* \"#utility.yul\":1550:1556   */\n      dup3\n        /* \"#utility.yul\":1539:1548   */\n      dup7\n        /* \"#utility.yul\":1535:1557   */\n      add\n        /* \"#utility.yul\":1514:1567   */\n      tag_77\n      jump\t// in\n    tag_89:\n        /* \"#utility.yul\":1504:1567   */\n      swap2\n      pop\n        /* \"#utility.yul\":1459:1577   */\n      pop\n        /* \"#utility.yul\":930:1584   */\n      swap3\n      pop\n      swap3\n      swap1\n      pop\n      jump\t// out\n        /* \"#utility.yul\":1590:1919   */\n    tag_9:\n        /* \"#utility.yul\":1649:1655   */\n      0x00\n        /* \"#utility.yul\":1698:1700   */\n      0x20\n        /* \"#utility.yul\":1686:1695   */\n      dup3\n        /* \"#utility.yul\":1677:1684   */\n      dup5\n        /* \"#utility.yul\":1673:1696   */\n      sub\n        /* \"#utility.yul\":1669:1701   */\n      slt\n        /* \"#utility.yul\":1666:1785   */\n      iszero\n      tag_91\n      jumpi\n        /* \"#utility.yul\":1704:1783   */\n      tag_92\n      tag_84\n      jump\t// in\n    tag_92:\n        /* \"#utility.yul\":1666:1785   */\n    tag_91:\n        /* \"#utility.yul\":1824:1825   */\n      0x00\n        /* \"#utility.yul\":1849:1902   */\n      tag_93\n        /* \"#utility.yul\":1894:1901   */\n      dup5\n        /* \"#utility.yul\":1885:1891   */\n      dup3\n        /* \"#utility.yul\":1874:1883   */\n      dup6\n        /* \"#utility.yul\":1870:1892   */\n      add\n        /* \"#utility.yul\":1849:1902   */\n      tag_77\n      jump\t// in\n    tag_93:\n        /* \"#utility.yul\":1839:1902   */\n      swap2\n      pop\n        /* \"#utility.yul\":1795:1912   */\n      pop\n        /* \"#utility.yul\":1590:1919   */\n      swap3\n      swap2\n      pop\n      pop\n      jump\t// out\n        /* \"#utility.yul\":1925:2579   */\n    tag_20:\n        /* \"#utility.yul\":2003:2009   */\n      0x00\n        /* \"#utility.yul\":2011:2017   */\n      dup1\n        /* \"#utility.yul\":2060:2062   */\n      0x40\n        /* \"#utility.yul\":2048:2057   */\n      dup4\n        /* \"#utility.yul\":2039:2046   */\n      dup6\n        /* \"#utility.yul\":2035:2058   */\n      sub\n        /* \"#utility.yul\":2031:2063   */\n      slt\n        /* \"#utility.yul\":2028:2147   */\n      iszero\n      tag_95\n      jumpi\n        /* \"#utility.yul\":2066:2145   */\n      tag_96\n      tag_84\n      jump\t// in\n    tag_96:\n        /* \"#utility.yul\":2028:2147   */\n    tag_95:\n        /* \"#utility.yul\":2186:2187   */\n      0x00\n        /* \"#utility.yul\":2211:2264   */\n      tag_97\n        /* \"#utility.yul\":2256:2263   */\n      dup6\n        /* \"#utility.yul\":2247:2253   */\n      dup3\n        /* \"#utility.yul\":2236:2245   */\n      dup7\n        /* \"#utility.yul\":2232:2254   */\n      add\n        /* \"#utility.yul\":2211:2264   */\n      tag_77\n      jump\t// in\n    tag_97:\n        /* \"#utility.yul\":2201:2264   */\n      swap3\n      pop\n        /* \"#utility.yul\":2157:2274   */\n      pop\n        /* \"#utility.yul\":2341:2343   */\n      0x20\n        /* \"#utility.yul\":2330:2339   */\n      dup4\n        /* \"#utility.yul\":2326:2344   */\n      add\n        /* \"#utility.yul\":2313:2345   */\n      calldataload\n        /* \"#utility.yul\":2372:2390   */\n      0xffffffffffffffff\n        /* \"#utility.yul\":2364:2370   */\n      dup2\n        /* \"#utility.yul\":2361:2391   */\n      gt\n        /* \"#utility.yul\":2358:2475   */\n      iszero\n      tag_98\n      jumpi\n        /* \"#utility.yul\":2394:2473   */\n      tag_99\n      tag_87\n      jump\t// in\n    tag_99:\n        /* \"#utility.yul\":2358:2475   */\n    tag_98:\n        /* \"#utility.yul\":2499:2562   */\n      tag_100\n        /* \"#utility.yul\":2554:2561   */\n      dup6\n        /* \"#utility.yul\":2545:2551   */\n      dup3\n        /* \"#utility.yul\":2534:2543   */\n      dup7\n        /* \"#utility.yul\":2530:2552   */\n      add\n        /* \"#utility.yul\":2499:2562   */\n      tag_71\n      jump\t// in\n    tag_100:\n        /* \"#utility.yul\":2489:2562   */\n      swap2\n      pop\n        /* \"#utility.yul\":2284:2572   */\n      pop\n        /* \"#utility.yul\":1925:2579   */\n      swap3\n      pop\n      swap3\n      swap1\n      pop\n      jump\t// out\n        /* \"#utility.yul\":2585:2949   */\n    tag_101:\n        /* \"#utility.yul\":2673:2676   */\n      0x00\n        /* \"#utility.yul\":2701:2740   */\n      tag_103\n        /* \"#utility.yul\":2734:2739   */\n      dup3\n        /* \"#utility.yul\":2701:2740   */\n      tag_104\n      jump\t// in\n    tag_103:\n        /* \"#utility.yul\":2756:2827   */\n      tag_105\n        /* \"#utility.yul\":2820:2826   */\n      dup2\n        /* \"#utility.yul\":2815:2818   */\n      dup6\n        /* \"#utility.yul\":2756:2827   */\n      tag_106\n      jump\t// in\n    tag_105:\n        /* \"#utility.yul\":2749:2827   */\n      swap4\n      pop\n        /* \"#utility.yul\":2836:2888   */\n      tag_107\n        /* \"#utility.yul\":2881:2887   */\n      dup2\n        /* \"#utility.yul\":2876:2879   */\n      dup6\n        /* \"#utility.yul\":2869:2873   */\n      0x20\n        /* \"#utility.yul\":2862:2867   */\n      dup7\n        /* \"#utility.yul\":2858:2874   */\n      add\n        /* \"#utility.yul\":2836:2888   */\n      tag_108\n      jump\t// in\n    tag_107:\n        /* \"#utility.yul\":2913:2942   */\n      tag_109\n        /* \"#utility.yul\":2935:2941   */\n      dup2\n        /* \"#utility.yul\":2913:2942   */\n      tag_110\n      jump\t// in\n    tag_109:\n        /* \"#utility.yul\":2908:2911   */\n      dup5\n        /* \"#utility.yul\":2904:2943   */\n      add\n        /* \"#utility.yul\":2897:2943   */\n      swap2\n      pop\n        /* \"#utility.yul\":2677:2949   */\n      pop\n        /* \"#utility.yul\":2585:2949   */\n      swap3\n      swap2\n      pop\n      pop\n      jump\t// out\n        /* \"#utility.yul\":2955:3073   */\n    tag_111:\n        /* \"#utility.yul\":3042:3066   */\n      tag_113\n        /* \"#utility.yul\":3060:3065   */\n      dup2\n        /* \"#utility.yul\":3042:3066   */\n      tag_114\n      jump\t// in\n    tag_113:\n        /* \"#utility.yul\":3037:3040   */\n      dup3\n        /* \"#utility.yul\":3030:3067   */\n      mstore\n        /* \"#utility.yul\":2955:3073   */\n      pop\n      pop\n      jump\t// out\n        /* \"#utility.yul\":3079:3392   */\n    tag_12:\n        /* \"#utility.yul\":3192:3196   */\n      0x00\n        /* \"#utility.yul\":3230:3232   */\n      0x20\n        /* \"#utility.yul\":3219:3228   */\n      dup3\n        /* \"#utility.yul\":3215:3233   */\n      add\n        /* \"#utility.yul\":3207:3233   */\n      swap1\n      pop\n        /* \"#utility.yul\":3279:3288   */\n      dup2\n        /* \"#utility.yul\":3273:3277   */\n      dup2\n        /* \"#utility.yul\":3269:3289   */\n      sub\n        /* \"#utility.yul\":3265:3266   */\n      0x00\n        /* \"#utility.yul\":3254:3263   */\n      dup4\n        /* \"#utility.yul\":3250:3267   */\n      add\n        /* \"#utility.yul\":3243:3290   */\n      mstore\n        /* \"#utility.yul\":3307:3385   */\n      tag_116\n        /* \"#utility.yul\":3380:3384   */\n      dup2\n        /* \"#utility.yul\":3371:3377   */\n      dup5\n        /* \"#utility.yul\":3307:3385   */\n      tag_101\n      jump\t// in\n    tag_116:\n        /* \"#utility.yul\":3299:3385   */\n      swap1\n      pop\n        /* \"#utility.yul\":3079:3392   */\n      swap3\n      swap2\n      pop\n      pop\n      jump\t// out\n        /* \"#utility.yul\":3398:3821   */\n    tag_17:\n        /* \"#utility.yul\":3539:3543   */\n      0x00\n        /* \"#utility.yul\":3577:3579   */\n      0x40\n        /* \"#utility.yul\":3566:3575   */\n      dup3\n        /* \"#utility.yul\":3562:3580   */\n      add\n        /* \"#utility.yul\":3554:3580   */\n      swap1\n      pop\n        /* \"#utility.yul\":3626:3635   */\n      dup2\n        /* \"#utility.yul\":3620:3624   */\n      dup2\n        /* \"#utility.yul\":3616:3636   */\n      sub\n        /* \"#utility.yul\":3612:3613   */\n      0x00\n        /* \"#utility.yul\":3601:3610   */\n      dup4\n        /* \"#utility.yul\":3597:3614   */\n      add\n        /* \"#utility.yul\":3590:3637   */\n      mstore\n        /* \"#utility.yul\":3654:3732   */\n      tag_118\n        /* \"#utility.yul\":3727:3731   */\n      dup2\n        /* \"#utility.yul\":3718:3724   */\n      dup6\n        /* \"#utility.yul\":3654:3732   */\n      tag_101\n      jump\t// in\n    tag_118:\n        /* \"#utility.yul\":3646:3732   */\n      swap1\n      pop\n        /* \"#utility.yul\":3742:3814   */\n      tag_119\n        /* \"#utility.yul\":3810:3812   */\n      0x20\n        /* \"#utility.yul\":3799:3808   */\n      dup4\n        /* \"#utility.yul\":3795:3813   */\n      add\n        /* \"#utility.yul\":3786:3792   */\n      dup5\n        /* \"#utility.yul\":3742:3814   */\n      tag_111\n      jump\t// in\n    tag_119:\n        /* \"#utility.yul\":3398:3821   */\n      swap4\n      swap3\n      pop\n      pop\n      pop\n      jump\t// out\n        /* \"#utility.yul\":3827:3956   */\n    tag_65:\n        /* \"#utility.yul\":3861:3867   */\n      0x00\n        /* \"#utility.yul\":3888:3908   */\n      tag_121\n      tag_122\n      jump\t// in\n    tag_121:\n        /* \"#utility.yul\":3878:3908   */\n      swap1\n      pop\n        /* \"#utility.yul\":3917:3950   */\n      tag_123\n        /* \"#utility.yul\":3945:3949   */\n      dup3\n        /* \"#utility.yul\":3937:3943   */\n      dup3\n        /* \"#utility.yul\":3917:3950   */\n      tag_124\n      jump\t// in\n    tag_123:\n        /* \"#utility.yul\":3827:3956   */\n      swap2\n      swap1\n      pop\n      jump\t// out\n        /* \"#utility.yul\":3962:4037   */\n    tag_122:\n        /* \"#utility.yul\":3995:4001   */\n      0x00\n        /* \"#utility.yul\":4028:4030   */\n      0x40\n        /* \"#utility.yul\":4022:4031   */\n      mload\n        /* \"#utility.yul\":4012:4031   */\n      swap1\n      pop\n        /* \"#utility.yul\":3962:4037   */\n      swap1\n      jump\t// out\n        /* \"#utility.yul\":4043:4351   */\n    tag_64:\n        /* \"#utility.yul\":4105:4109   */\n      0x00\n        /* \"#utility.yul\":4195:4213   */\n      0xffffffffffffffff\n        /* \"#utility.yul\":4187:4193   */\n      dup3\n        /* \"#utility.yul\":4184:4214   */\n      gt\n        /* \"#utility.yul\":4181:4237   */\n      iszero\n      tag_127\n      jumpi\n        /* \"#utility.yul\":4217:4235   */\n      tag_128\n      tag_129\n      jump\t// in\n    tag_128:\n        /* \"#utility.yul\":4181:4237   */\n    tag_127:\n        /* \"#utility.yul\":4255:4284   */\n      tag_130\n        /* \"#utility.yul\":4277:4283   */\n      dup3\n        /* \"#utility.yul\":4255:4284   */\n      tag_110\n      jump\t// in\n    tag_130:\n        /* \"#utility.yul\":4247:4284   */\n      swap1\n      pop\n        /* \"#utility.yul\":4339:4343   */\n      0x20\n        /* \"#utility.yul\":4333:4337   */\n      dup2\n        /* \"#utility.yul\":4329:4344   */\n      add\n        /* \"#utility.yul\":4321:4344   */\n      swap1\n      pop\n        /* \"#utility.yul\":4043:4351   */\n      swap2\n      swap1\n      pop\n      jump\t// out\n        /* \"#utility.yul\":4357:4456   */\n    tag_104:\n        /* \"#utility.yul\":4409:4415   */\n      0x00\n        /* \"#utility.yul\":4443:4448   */\n      dup2\n        /* \"#utility.yul\":4437:4449   */\n      mload\n        /* \"#utility.yul\":4427:4449   */\n      swap1\n      pop\n        /* \"#utility.yul\":4357:4456   */\n      swap2\n      swap1\n      pop\n      jump\t// out\n        /* \"#utility.yul\":4462:4631   */\n    tag_106:\n        /* \"#utility.yul\":4546:4557   */\n      0x00\n        /* \"#utility.yul\":4580:4586   */\n      dup3\n        /* \"#utility.yul\":4575:4578   */\n      dup3\n        /* \"#utility.yul\":4568:4587   */\n      mstore\n        /* \"#utility.yul\":4620:4624   */\n      0x20\n        /* \"#utility.yul\":4615:4618   */\n      dup3\n        /* \"#utility.yul\":4611:4625   */\n      add\n        /* \"#utility.yul\":4596:4625   */\n      swap1\n      pop\n        /* \"#utility.yul\":4462:4631   */\n      swap3\n      swap2\n      pop\n      pop\n      jump\t// out\n        /* \"#utility.yul\":4637:4714   */\n    tag_114:\n        /* \"#utility.yul\":4674:4681   */\n      0x00\n        /* \"#utility.yul\":4703:4708   */\n      dup2\n        /* \"#utility.yul\":4692:4708   */\n      swap1\n      pop\n        /* \"#utility.yul\":4637:4714   */\n      swap2\n      swap1\n      pop\n      jump\t// out\n        /* \"#utility.yul\":4720:4874   */\n    tag_70:\n        /* \"#utility.yul\":4804:4810   */\n      dup3\n        /* \"#utility.yul\":4799:4802   */\n      dup2\n        /* \"#utility.yul\":4794:4797   */\n      dup4\n        /* \"#utility.yul\":4781:4811   */\n      calldatacopy\n        /* \"#utility.yul\":4866:4867   */\n      0x00\n        /* \"#utility.yul\":4857:4863   */\n      dup4\n        /* \"#utility.yul\":4852:4855   */\n      dup4\n        /* \"#utility.yul\":4848:4864   */\n      add\n        /* \"#utility.yul\":4841:4868   */\n      mstore\n        /* \"#utility.yul\":4720:4874   */\n      pop\n      pop\n      pop\n      jump\t// out\n        /* \"#utility.yul\":4880:5187   */\n    tag_108:\n        /* \"#utility.yul\":4948:4949   */\n      0x00\n        /* \"#utility.yul\":4958:5071   */\n    tag_136:\n        /* \"#utility.yul\":4972:4978   */\n      dup4\n        /* \"#utility.yul\":4969:4970   */\n      dup2\n        /* \"#utility.yul\":4966:4979   */\n      lt\n        /* \"#utility.yul\":4958:5071   */\n      iszero\n      tag_138\n      jumpi\n        /* \"#utility.yul\":5057:5058   */\n      dup1\n        /* \"#utility.yul\":5052:5055   */\n      dup3\n        /* \"#utility.yul\":5048:5059   */\n      add\n        /* \"#utility.yul\":5042:5060   */\n      mload\n        /* \"#utility.yul\":5038:5039   */\n      dup2\n        /* \"#utility.yul\":5033:5036   */\n      dup5\n        /* \"#utility.yul\":5029:5040   */\n      add\n        /* \"#utility.yul\":5022:5061   */\n      mstore\n        /* \"#utility.yul\":4994:4996   */\n      0x20\n        /* \"#utility.yul\":4991:4992   */\n      dup2\n        /* \"#utility.yul\":4987:4997   */\n      add\n        /* \"#utility.yul\":4982:4997   */\n      swap1\n      pop\n        /* \"#utility.yul\":4958:5071   */\n      jump(tag_136)\n    tag_138:\n        /* \"#utility.yul\":5089:5095   */\n      dup4\n        /* \"#utility.yul\":5086:5087   */\n      dup2\n        /* \"#utility.yul\":5083:5096   */\n      gt\n        /* \"#utility.yul\":5080:5181   */\n      iszero\n      tag_139\n      jumpi\n        /* \"#utility.yul\":5169:5170   */\n      0x00\n        /* \"#utility.yul\":5160:5166   */\n      dup5\n        /* \"#utility.yul\":5155:5158   */\n      dup5\n        /* \"#utility.yul\":5151:5167   */\n      add\n        /* \"#utility.yul\":5144:5171   */\n      mstore\n        /* \"#utility.yul\":5080:5181   */\n    tag_139:\n        /* \"#utility.yul\":4929:5187   */\n      pop\n        /* \"#utility.yul\":4880:5187   */\n      pop\n      pop\n      pop\n      jump\t// out\n        /* \"#utility.yul\":5193:5513   */\n    tag_32:\n        /* \"#utility.yul\":5237:5243   */\n      0x00\n        /* \"#utility.yul\":5274:5275   */\n      0x02\n        /* \"#utility.yul\":5268:5272   */\n      dup3\n        /* \"#utility.yul\":5264:5276   */\n      div\n        /* \"#utility.yul\":5254:5276   */\n      swap1\n      pop\n        /* \"#utility.yul\":5321:5322   */\n      0x01\n        /* \"#utility.yul\":5315:5319   */\n      dup3\n        /* \"#utility.yul\":5311:5323   */\n      and\n        /* \"#utility.yul\":5342:5360   */\n      dup1\n        /* \"#utility.yul\":5332:5413   */\n      tag_141\n      jumpi\n        /* \"#utility.yul\":5398:5402   */\n      0x7f\n        /* \"#utility.yul\":5390:5396   */\n      dup3\n        /* \"#utility.yul\":5386:5403   */\n      and\n        /* \"#utility.yul\":5376:5403   */\n      swap2\n      pop\n        /* \"#utility.yul\":5332:5413   */\n    tag_141:\n        /* \"#utility.yul\":5460:5462   */\n      0x20\n        /* \"#utility.yul\":5452:5458   */\n      dup3\n        /* \"#utility.yul\":5449:5463   */\n      lt\n        /* \"#utility.yul\":5429:5447   */\n      dup2\n        /* \"#utility.yul\":5426:5464   */\n      eq\n        /* \"#utility.yul\":5423:5507   */\n      iszero\n      tag_142\n      jumpi\n        /* \"#utility.yul\":5479:5497   */\n      tag_143\n      tag_144\n      jump\t// in\n    tag_143:\n        /* \"#utility.yul\":5423:5507   */\n    tag_142:\n        /* \"#utility.yul\":5244:5513   */\n      pop\n        /* \"#utility.yul\":5193:5513   */\n      swap2\n      swap1\n      pop\n      jump\t// out\n        /* \"#utility.yul\":5519:5800   */\n    tag_124:\n        /* \"#utility.yul\":5602:5629   */\n      tag_146\n        /* \"#utility.yul\":5624:5628   */\n      dup3\n        /* \"#utility.yul\":5602:5629   */\n      tag_110\n      jump\t// in\n    tag_146:\n        /* \"#utility.yul\":5594:5600   */\n      dup2\n        /* \"#utility.yul\":5590:5630   */\n      add\n        /* \"#utility.yul\":5732:5738   */\n      dup2\n        /* \"#utility.yul\":5720:5730   */\n      dup2\n        /* \"#utility.yul\":5717:5739   */\n      lt\n        /* \"#utility.yul\":5696:5714   */\n      0xffffffffffffffff\n        /* \"#utility.yul\":5684:5694   */\n      dup3\n        /* \"#utility.yul\":5681:5715   */\n      gt\n        /* \"#utility.yul\":5678:5740   */\n      or\n        /* \"#utility.yul\":5675:5763   */\n      iszero\n      tag_147\n      jumpi\n        /* \"#utility.yul\":5743:5761   */\n      tag_148\n      tag_129\n      jump\t// in\n    tag_148:\n        /* \"#utility.yul\":5675:5763   */\n    tag_147:\n        /* \"#utility.yul\":5783:5793   */\n      dup1\n        /* \"#utility.yul\":5779:5781   */\n      0x40\n        /* \"#utility.yul\":5772:5794   */\n      mstore\n        /* \"#utility.yul\":5562:5800   */\n      pop\n        /* \"#utility.yul\":5519:5800   */\n      pop\n      pop\n      jump\t// out\n        /* \"#utility.yul\":5806:5986   */\n    tag_144:\n        /* \"#utility.yul\":5854:5931   */\n      0x4e487b7100000000000000000000000000000000000000000000000000000000\n        /* \"#utility.yul\":5851:5852   */\n      0x00\n        /* \"#utility.yul\":5844:5932   */\n      mstore\n        /* \"#utility.yul\":5951:5955   */\n      0x22\n        /* \"#utility.yul\":5948:5949   */\n      0x04\n        /* \"#utility.yul\":5941:5956   */\n      mstore\n        /* \"#utility.yul\":5975:5979   */\n      0x24\n        /* \"#utility.yul\":5972:5973   */\n      0x00\n        /* \"#utility.yul\":5965:5980   */\n      revert\n        /* \"#utility.yul\":5992:6172   */\n    tag_29:\n        /* \"#utility.yul\":6040:6117   */\n      0x4e487b7100000000000000000000000000000000000000000000000000000000\n        /* \"#utility.yul\":6037:6038   */\n      0x00\n        /* \"#utility.yul\":6030:6118   */\n      mstore\n        /* \"#utility.yul\":6137:6141   */\n      0x32\n        /* \"#utility.yul\":6134:6135   */\n      0x04\n        /* \"#utility.yul\":6127:6142   */\n      mstore\n        /* \"#utility.yul\":6161:6165   */\n      0x24\n        /* \"#utility.yul\":6158:6159   */\n      0x00\n        /* \"#utility.yul\":6151:6166   */\n      revert\n        /* \"#utility.yul\":6178:6358   */\n    tag_129:\n        /* \"#utility.yul\":6226:6303   */\n      0x4e487b7100000000000000000000000000000000000000000000000000000000\n        /* \"#utility.yul\":6223:6224   */\n      0x00\n        /* \"#utility.yul\":6216:6304   */\n      mstore\n        /* \"#utility.yul\":6323:6327   */\n      0x41\n        /* \"#utility.yul\":6320:6321   */\n      0x04\n        /* \"#utility.yul\":6313:6328   */\n      mstore\n        /* \"#utility.yul\":6347:6351   */\n      0x24\n        /* \"#utility.yul\":6344:6345   */\n      0x00\n        /* \"#utility.yul\":6337:6352   */\n      revert\n        /* \"#utility.yul\":6364:6481   */\n    tag_75:\n        /* \"#utility.yul\":6473:6474   */\n      0x00\n        /* \"#utility.yul\":6470:6471   */\n      dup1\n        /* \"#utility.yul\":6463:6475   */\n      revert\n        /* \"#utility.yul\":6487:6604   */\n    tag_68:\n        /* \"#utility.yul\":6596:6597   */\n      0x00\n        /* \"#utility.yul\":6593:6594   */\n      dup1\n        /* \"#utility.yul\":6586:6598   */\n      revert\n        /* \"#utility.yul\":6610:6727   */\n    tag_87:\n        /* \"#utility.yul\":6719:6720   */\n      0x00\n        /* \"#utility.yul\":6716:6717   */\n      dup1\n        /* \"#utility.yul\":6709:6721   */\n      revert\n        /* \"#utility.yul\":6733:6850   */\n    tag_84:\n        /* \"#utility.yul\":6842:6843   */\n      0x00\n        /* \"#utility.yul\":6839:6840   */\n      dup1\n        /* \"#utility.yul\":6832:6844   */\n      revert\n        /* \"#utility.yul\":6856:6958   */\n    tag_110:\n        /* \"#utility.yul\":6897:6903   */\n      0x00\n        /* \"#utility.yul\":6948:6950   */\n      0x1f\n        /* \"#utility.yul\":6944:6951   */\n      not\n        /* \"#utility.yul\":6939:6941   */\n      0x1f\n        /* \"#utility.yul\":6932:6937   */\n      dup4\n        /* \"#utility.yul\":6928:6942   */\n      add\n        /* \"#utility.yul\":6924:6952   */\n      and\n        /* \"#utility.yul\":6914:6952   */\n      swap1\n      pop\n        /* \"#utility.yul\":6856:6958   */\n      swap2\n      swap1\n      pop\n      jump\t// out\n        /* \"#utility.yul\":6964:7086   */\n    tag_80:\n        /* \"#utility.yul\":7037:7061   */\n      tag_158\n        /* \"#utility.yul\":7055:7060   */\n      dup2\n        /* \"#utility.yul\":7037:7061   */\n      tag_114\n      jump\t// in\n    tag_158:\n        /* \"#utility.yul\":7030:7035   */\n      dup2\n        /* \"#utility.yul\":7027:7062   */\n      eq\n        /* \"#utility.yul\":7017:7080   */\n      tag_159\n      jumpi\n        /* \"#utility.yul\":7076:7077   */\n      0x00\n        /* \"#utility.yul\":7073:7074   */\n      dup1\n        /* \"#utility.yul\":7066:7078   */\n      revert\n        /* \"#utility.yul\":7017:7080   */\n    tag_159:\n        /* \"#utility.yul\":6964:7086   */\n      pop\n      jump\t// out\n\n    auxdata: 0xa2646970667358221220cc4c84025ede1c29390baaac9f1c3f5623ce5aec5db912f053f13c97f4fdab6964736f6c63430008070033\n}\n",
				"bytecode": {
					"linkReferences": {},
					"object": "608060405234801561001057600080fd5b5061079b806100206000396000f3fe608060405234801561001057600080fd5b506004361061004c5760003560e01c8063278ec44f146100515780636c967a5414610081578063c318d8f8146100b2578063e386a7ca146100ce575b600080fd5b61006b60048036038101906100669190610458565b6100ea565b6040516100789190610529565b60405180910390f35b61009b60048036038101906100969190610458565b6101a1565b6040516100a992919061054b565b60405180910390f35b6100cc60048036038101906100c79190610485565b61025d565b005b6100e860048036038101906100e391906103fc565b610261565b005b606060008281548110610100576100ff6106cb565b5b9060005260206000209060020201600001805461011c90610639565b80601f016020809104026020016040519081016040528092919081815260200182805461014890610639565b80156101955780601f1061016a57610100808354040283529160200191610195565b820191906000526020600020905b81548152906001019060200180831161017857829003601f168201915b50505050509050919050565b600081815481106101b157600080fd5b90600052602060002090600202016000915090508060000180546101d490610639565b80601f016020809104026020016040519081016040528092919081815260200182805461020090610639565b801561024d5780601f106102225761010080835404028352916020019161024d565b820191906000526020600020905b81548152906001019060200180831161023057829003601f168201915b5050505050908060010154905082565b5050565b60006040518060400160405280848152602001838152509050600081908060018154018082558091505060019003906000526020600020906002020160009091909190915060008201518160000190805190602001906102c29291906102d4565b50602082015181600101555050505050565b8280546102e090610639565b90600052602060002090601f0160209004810192826103025760008555610349565b82601f1061031b57805160ff1916838001178555610349565b82800160010185558215610349579182015b8281111561034857825182559160200191906001019061032d565b5b509050610356919061035a565b5090565b5b8082111561037357600081600090555060010161035b565b5090565b600061038a610385846105a0565b61057b565b9050828152602081018484840111156103a6576103a561072e565b5b6103b18482856105f7565b509392505050565b600082601f8301126103ce576103cd610729565b5b81356103de848260208601610377565b91505092915050565b6000813590506103f68161074e565b92915050565b6000806040838503121561041357610412610738565b5b600083013567ffffffffffffffff81111561043157610430610733565b5b61043d858286016103b9565b925050602061044e858286016103e7565b9150509250929050565b60006020828403121561046e5761046d610738565b5b600061047c848285016103e7565b91505092915050565b6000806040838503121561049c5761049b610738565b5b60006104aa858286016103e7565b925050602083013567ffffffffffffffff8111156104cb576104ca610733565b5b6104d7858286016103b9565b9150509250929050565b60006104ec826105d1565b6104f681856105dc565b9350610506818560208601610606565b61050f8161073d565b840191505092915050565b610523816105ed565b82525050565b6000602082019050818103600083015261054381846104e1565b905092915050565b6000604082019050818103600083015261056581856104e1565b9050610574602083018461051a565b9392505050565b6000610585610596565b9050610591828261066b565b919050565b6000604051905090565b600067ffffffffffffffff8211156105bb576105ba6106fa565b5b6105c48261073d565b9050602081019050919050565b600081519050919050565b600082825260208201905092915050565b6000819050919050565b82818337600083830152505050565b60005b83811015610624578082015181840152602081019050610609565b83811115610633576000848401525b50505050565b6000600282049050600182168061065157607f821691505b602082108114156106655761066461069c565b5b50919050565b6106748261073d565b810181811067ffffffffffffffff82111715610693576106926106fa565b5b80604052505050565b7f4e487b7100000000000000000000000000000000000000000000000000000000600052602260045260246000fd5b7f4e487b7100000000000000000000000000000000000000000000000000000000600052603260045260246000fd5b7f4e487b7100000000000000000000000000000000000000000000000000000000600052604160045260246000fd5b600080fd5b600080fd5b600080fd5b600080fd5b6000601f19601f8301169050919050565b610757816105ed565b811461076257600080fd5b5056fea2646970667358221220cc4c84025ede1c29390baaac9f1c3f5623ce5aec5db912f053f13c97f4fdab6964736f6c63430008070033",
					"opcodes": "PUSH1 0x80 PUSH1 0x40 MSTORE CALLVALUE DUP1 ISZERO PUSH2 0x10 JUMPI PUSH1 0x0 DUP1 REVERT JUMPDEST POP PUSH2 0x79B DUP1 PUSH2 0x20 PUSH1 0x0 CODECOPY PUSH1 0x0 RETURN INVALID PUSH1 0x80 PUSH1 0x40 MSTORE CALLVALUE DUP1 ISZERO PUSH2 0x10 JUMPI PUSH1 0x0 DUP1 REVERT JUMPDEST POP PUSH1 0x4 CALLDATASIZE LT PUSH2 0x4C JUMPI PUSH1 0x0 CALLDATALOAD PUSH1 0xE0 SHR DUP1 PUSH4 0x278EC44F EQ PUSH2 0x51 JUMPI DUP1 PUSH4 0x6C967A54 EQ PUSH2 0x81 JUMPI DUP1 PUSH4 0xC318D8F8 EQ PUSH2 0xB2 JUMPI DUP1 PUSH4 0xE386A7CA EQ PUSH2 0xCE JUMPI JUMPDEST PUSH1 0x0 DUP1 REVERT JUMPDEST PUSH2 0x6B PUSH1 0x4 DUP1 CALLDATASIZE SUB DUP2 ADD SWAP1 PUSH2 0x66 SWAP2 SWAP1 PUSH2 0x458 JUMP JUMPDEST PUSH2 0xEA JUMP JUMPDEST PUSH1 0x40 MLOAD PUSH2 0x78 SWAP2 SWAP1 PUSH2 0x529 JUMP JUMPDEST PUSH1 0x40 MLOAD DUP1 SWAP2 SUB SWAP1 RETURN JUMPDEST PUSH2 0x9B PUSH1 0x4 DUP1 CALLDATASIZE SUB DUP2 ADD SWAP1 PUSH2 0x96 SWAP2 SWAP1 PUSH2 0x458 JUMP JUMPDEST PUSH2 0x1A1 JUMP JUMPDEST PUSH1 0x40 MLOAD PUSH2 0xA9 SWAP3 SWAP2 SWAP1 PUSH2 0x54B JUMP JUMPDEST PUSH1 0x40 MLOAD DUP1 SWAP2 SUB SWAP1 RETURN JUMPDEST PUSH2 0xCC PUSH1 0x4 DUP1 CALLDATASIZE SUB DUP2 ADD SWAP1 PUSH2 0xC7 SWAP2 SWAP1 PUSH2 0x485 JUMP JUMPDEST PUSH2 0x25D JUMP JUMPDEST STOP JUMPDEST PUSH2 0xE8 PUSH1 0x4 DUP1 CALLDATASIZE SUB DUP2 ADD SWAP1 PUSH2 0xE3 SWAP2 SWAP1 PUSH2 0x3FC JUMP JUMPDEST PUSH2 0x261 JUMP JUMPDEST STOP JUMPDEST PUSH1 0x60 PUSH1 0x0 DUP3 DUP2 SLOAD DUP2 LT PUSH2 0x100 JUMPI PUSH2 0xFF PUSH2 0x6CB JUMP JUMPDEST JUMPDEST SWAP1 PUSH1 0x0 MSTORE PUSH1 0x20 PUSH1 0x0 KECCAK256 SWAP1 PUSH1 0x2 MUL ADD PUSH1 0x0 ADD DUP1 SLOAD PUSH2 0x11C SWAP1 PUSH2 0x639 JUMP JUMPDEST DUP1 PUSH1 0x1F ADD PUSH1 0x20 DUP1 SWAP2 DIV MUL PUSH1 0x20 ADD PUSH1 0x40 MLOAD SWAP1 DUP2 ADD PUSH1 0x40 MSTORE DUP1 SWAP3 SWAP2 SWAP1 DUP2 DUP2 MSTORE PUSH1 0x20 ADD DUP3 DUP1 SLOAD PUSH2 0x148 SWAP1 PUSH2 0x639 JUMP JUMPDEST DUP1 ISZERO PUSH2 0x195 JUMPI DUP1 PUSH1 0x1F LT PUSH2 0x16A JUMPI PUSH2 0x100 DUP1 DUP4 SLOAD DIV MUL DUP4 MSTORE SWAP2 PUSH1 0x20 ADD SWAP2 PUSH2 0x195 JUMP JUMPDEST DUP3 ADD SWAP2 SWAP1 PUSH1 0x0 MSTORE PUSH1 0x20 PUSH1 0x0 KECCAK256 SWAP1 JUMPDEST DUP2 SLOAD DUP2 MSTORE SWAP1 PUSH1 0x1 ADD SWAP1 PUSH1 0x20 ADD DUP1 DUP4 GT PUSH2 0x178 JUMPI DUP3 SWAP1 SUB PUSH1 0x1F AND DUP3 ADD SWAP2 JUMPDEST POP POP POP POP POP SWAP1 POP SWAP2 SWAP1 POP JUMP JUMPDEST PUSH1 0x0 DUP2 DUP2 SLOAD DUP2 LT PUSH2 0x1B1 JUMPI PUSH1 0x0 DUP1 REVERT JUMPDEST SWAP1 PUSH1 0x0 MSTORE PUSH1 0x20 PUSH1 0x0 KECCAK256 SWAP1 PUSH1 0x2 MUL ADD PUSH1 0x0 SWAP2 POP SWAP1 POP DUP1 PUSH1 0x0 ADD DUP1 SLOAD PUSH2 0x1D4 SWAP1 PUSH2 0x639 JUMP JUMPDEST DUP1 PUSH1 0x1F ADD PUSH1 0x20 DUP1 SWAP2 DIV MUL PUSH1 0x20 ADD PUSH1 0x40 MLOAD SWAP1 DUP2 ADD PUSH1 0x40 MSTORE DUP1 SWAP3 SWAP2 SWAP1 DUP2 DUP2 MSTORE PUSH1 0x20 ADD DUP3 DUP1 SLOAD PUSH2 0x200 SWAP1 PUSH2 0x639 JUMP JUMPDEST DUP1 ISZERO PUSH2 0x24D JUMPI DUP1 PUSH1 0x1F LT PUSH2 0x222 JUMPI PUSH2 0x100 DUP1 DUP4 SLOAD DIV MUL DUP4 MSTORE SWAP2 PUSH1 0x20 ADD SWAP2 PUSH2 0x24D JUMP JUMPDEST DUP3 ADD SWAP2 SWAP1 PUSH1 0x0 MSTORE PUSH1 0x20 PUSH1 0x0 KECCAK256 SWAP1 JUMPDEST DUP2 SLOAD DUP2 MSTORE SWAP1 PUSH1 0x1 ADD SWAP1 PUSH1 0x20 ADD DUP1 DUP4 GT PUSH2 0x230 JUMPI DUP3 SWAP1 SUB PUSH1 0x1F AND DUP3 ADD SWAP2 JUMPDEST POP POP POP POP POP SWAP1 DUP1 PUSH1 0x1 ADD SLOAD SWAP1 POP DUP3 JUMP JUMPDEST POP POP JUMP JUMPDEST PUSH1 0x0 PUSH1 0x40 MLOAD DUP1 PUSH1 0x40 ADD PUSH1 0x40 MSTORE DUP1 DUP5 DUP2 MSTORE PUSH1 0x20 ADD DUP4 DUP2 MSTORE POP SWAP1 POP PUSH1 0x0 DUP2 SWAP1 DUP1 PUSH1 0x1 DUP2 SLOAD ADD DUP1 DUP3 SSTORE DUP1 SWAP2 POP POP PUSH1 0x1 SWAP1 SUB SWAP1 PUSH1 0x0 MSTORE PUSH1 0x20 PUSH1 0x0 KECCAK256 SWAP1 PUSH1 0x2 MUL ADD PUSH1 0x0 SWAP1 SWAP2 SWAP1 SWAP2 SWAP1 SWAP2 POP PUSH1 0x0 DUP3 ADD MLOAD DUP2 PUSH1 0x0 ADD SWAP1 DUP1 MLOAD SWAP1 PUSH1 0x20 ADD SWAP1 PUSH2 0x2C2 SWAP3 SWAP2 SWAP1 PUSH2 0x2D4 JUMP JUMPDEST POP PUSH1 0x20 DUP3 ADD MLOAD DUP2 PUSH1 0x1 ADD SSTORE POP POP POP POP POP JUMP JUMPDEST DUP3 DUP1 SLOAD PUSH2 0x2E0 SWAP1 PUSH2 0x639 JUMP JUMPDEST SWAP1 PUSH1 0x0 MSTORE PUSH1 0x20 PUSH1 0x0 KECCAK256 SWAP1 PUSH1 0x1F ADD PUSH1 0x20 SWAP1 DIV DUP2 ADD SWAP3 DUP3 PUSH2 0x302 JUMPI PUSH1 0x0 DUP6 SSTORE PUSH2 0x349 JUMP JUMPDEST DUP3 PUSH1 0x1F LT PUSH2 0x31B JUMPI DUP1 MLOAD PUSH1 0xFF NOT AND DUP4 DUP1 ADD OR DUP6 SSTORE PUSH2 0x349 JUMP JUMPDEST DUP3 DUP1 ADD PUSH1 0x1 ADD DUP6 SSTORE DUP3 ISZERO PUSH2 0x349 JUMPI SWAP2 DUP3 ADD JUMPDEST DUP3 DUP2 GT ISZERO PUSH2 0x348 JUMPI DUP3 MLOAD DUP3 SSTORE SWAP2 PUSH1 0x20 ADD SWAP2 SWAP1 PUSH1 0x1 ADD SWAP1 PUSH2 0x32D JUMP JUMPDEST JUMPDEST POP SWAP1 POP PUSH2 0x356 SWAP2 SWAP1 PUSH2 0x35A JUMP JUMPDEST POP SWAP1 JUMP JUMPDEST JUMPDEST DUP1 DUP3 GT ISZERO PUSH2 0x373 JUMPI PUSH1 0x0 DUP2 PUSH1 0x0 SWAP1 SSTORE POP PUSH1 0x1 ADD PUSH2 0x35B JUMP JUMPDEST POP SWAP1 JUMP JUMPDEST PUSH1 0x0 PUSH2 0x38A PUSH2 0x385 DUP5 PUSH2 0x5A0 JUMP JUMPDEST PUSH2 0x57B JUMP JUMPDEST SWAP1 POP DUP3 DUP2 MSTORE PUSH1 0x20 DUP2 ADD DUP5 DUP5 DUP5 ADD GT ISZERO PUSH2 0x3A6 JUMPI PUSH2 0x3A5 PUSH2 0x72E JUMP JUMPDEST JUMPDEST PUSH2 0x3B1 DUP5 DUP3 DUP6 PUSH2 0x5F7 JUMP JUMPDEST POP SWAP4 SWAP3 POP POP POP JUMP JUMPDEST PUSH1 0x0 DUP3 PUSH1 0x1F DUP4 ADD SLT PUSH2 0x3CE JUMPI PUSH2 0x3CD PUSH2 0x729 JUMP JUMPDEST JUMPDEST DUP2 CALLDATALOAD PUSH2 0x3DE DUP5 DUP3 PUSH1 0x20 DUP7 ADD PUSH2 0x377 JUMP JUMPDEST SWAP2 POP POP SWAP3 SWAP2 POP POP JUMP JUMPDEST PUSH1 0x0 DUP2 CALLDATALOAD SWAP1 POP PUSH2 0x3F6 DUP2 PUSH2 0x74E JUMP JUMPDEST SWAP3 SWAP2 POP POP JUMP JUMPDEST PUSH1 0x0 DUP1 PUSH1 0x40 DUP4 DUP6 SUB SLT ISZERO PUSH2 0x413 JUMPI PUSH2 0x412 PUSH2 0x738 JUMP JUMPDEST JUMPDEST PUSH1 0x0 DUP4 ADD CALLDATALOAD PUSH8 0xFFFFFFFFFFFFFFFF DUP2 GT ISZERO PUSH2 0x431 JUMPI PUSH2 0x430 PUSH2 0x733 JUMP JUMPDEST JUMPDEST PUSH2 0x43D DUP6 DUP3 DUP7 ADD PUSH2 0x3B9 JUMP JUMPDEST SWAP3 POP POP PUSH1 0x20 PUSH2 0x44E DUP6 DUP3 DUP7 ADD PUSH2 0x3E7 JUMP JUMPDEST SWAP2 POP POP SWAP3 POP SWAP3 SWAP1 POP JUMP JUMPDEST PUSH1 0x0 PUSH1 0x20 DUP3 DUP5 SUB SLT ISZERO PUSH2 0x46E JUMPI PUSH2 0x46D PUSH2 0x738 JUMP JUMPDEST JUMPDEST PUSH1 0x0 PUSH2 0x47C DUP5 DUP3 DUP6 ADD PUSH2 0x3E7 JUMP JUMPDEST SWAP2 POP POP SWAP3 SWAP2 POP POP JUMP JUMPDEST PUSH1 0x0 DUP1 PUSH1 0x40 DUP4 DUP6 SUB SLT ISZERO PUSH2 0x49C JUMPI PUSH2 0x49B PUSH2 0x738 JUMP JUMPDEST JUMPDEST PUSH1 0x0 PUSH2 0x4AA DUP6 DUP3 DUP7 ADD PUSH2 0x3E7 JUMP JUMPDEST SWAP3 POP POP PUSH1 0x20 DUP4 ADD CALLDATALOAD PUSH8 0xFFFFFFFFFFFFFFFF DUP2 GT ISZERO PUSH2 0x4CB JUMPI PUSH2 0x4CA PUSH2 0x733 JUMP JUMPDEST JUMPDEST PUSH2 0x4D7 DUP6 DUP3 DUP7 ADD PUSH2 0x3B9 JUMP JUMPDEST SWAP2 POP POP SWAP3 POP SWAP3 SWAP1 POP JUMP JUMPDEST PUSH1 0x0 PUSH2 0x4EC DUP3 PUSH2 0x5D1 JUMP JUMPDEST PUSH2 0x4F6 DUP2 DUP6 PUSH2 0x5DC JUMP JUMPDEST SWAP4 POP PUSH2 0x506 DUP2 DUP6 PUSH1 0x20 DUP7 ADD PUSH2 0x606 JUMP JUMPDEST PUSH2 0x50F DUP2 PUSH2 0x73D JUMP JUMPDEST DUP5 ADD SWAP2 POP POP SWAP3 SWAP2 POP POP JUMP JUMPDEST PUSH2 0x523 DUP2 PUSH2 0x5ED JUMP JUMPDEST DUP3 MSTORE POP POP JUMP JUMPDEST PUSH1 0x0 PUSH1 0x20 DUP3 ADD SWAP1 POP DUP2 DUP2 SUB PUSH1 0x0 DUP4 ADD MSTORE PUSH2 0x543 DUP2 DUP5 PUSH2 0x4E1 JUMP JUMPDEST SWAP1 POP SWAP3 SWAP2 POP POP JUMP JUMPDEST PUSH1 0x0 PUSH1 0x40 DUP3 ADD SWAP1 POP DUP2 DUP2 SUB PUSH1 0x0 DUP4 ADD MSTORE PUSH2 0x565 DUP2 DUP6 PUSH2 0x4E1 JUMP JUMPDEST SWAP1 POP PUSH2 0x574 PUSH1 0x20 DUP4 ADD DUP5 PUSH2 0x51A JUMP JUMPDEST SWAP4 SWAP3 POP POP POP JUMP JUMPDEST PUSH1 0x0 PUSH2 0x585 PUSH2 0x596 JUMP JUMPDEST SWAP1 POP PUSH2 0x591 DUP3 DUP3 PUSH2 0x66B JUMP JUMPDEST SWAP2 SWAP1 POP JUMP JUMPDEST PUSH1 0x0 PUSH1 0x40 MLOAD SWAP1 POP SWAP1 JUMP JUMPDEST PUSH1 0x0 PUSH8 0xFFFFFFFFFFFFFFFF DUP3 GT ISZERO PUSH2 0x5BB JUMPI PUSH2 0x5BA PUSH2 0x6FA JUMP JUMPDEST JUMPDEST PUSH2 0x5C4 DUP3 PUSH2 0x73D JUMP JUMPDEST SWAP1 POP PUSH1 0x20 DUP2 ADD SWAP1 POP SWAP2 SWAP1 POP JUMP JUMPDEST PUSH1 0x0 DUP2 MLOAD SWAP1 POP SWAP2 SWAP1 POP JUMP JUMPDEST PUSH1 0x0 DUP3 DUP3 MSTORE PUSH1 0x20 DUP3 ADD SWAP1 POP SWAP3 SWAP2 POP POP JUMP JUMPDEST PUSH1 0x0 DUP2 SWAP1 POP SWAP2 SWAP1 POP JUMP JUMPDEST DUP3 DUP2 DUP4 CALLDATACOPY PUSH1 0x0 DUP4 DUP4 ADD MSTORE POP POP POP JUMP JUMPDEST PUSH1 0x0 JUMPDEST DUP4 DUP2 LT ISZERO PUSH2 0x624 JUMPI DUP1 DUP3 ADD MLOAD DUP2 DUP5 ADD MSTORE PUSH1 0x20 DUP2 ADD SWAP1 POP PUSH2 0x609 JUMP JUMPDEST DUP4 DUP2 GT ISZERO PUSH2 0x633 JUMPI PUSH1 0x0 DUP5 DUP5 ADD MSTORE JUMPDEST POP POP POP POP JUMP JUMPDEST PUSH1 0x0 PUSH1 0x2 DUP3 DIV SWAP1 POP PUSH1 0x1 DUP3 AND DUP1 PUSH2 0x651 JUMPI PUSH1 0x7F DUP3 AND SWAP2 POP JUMPDEST PUSH1 0x20 DUP3 LT DUP2 EQ ISZERO PUSH2 0x665 JUMPI PUSH2 0x664 PUSH2 0x69C JUMP JUMPDEST JUMPDEST POP SWAP2 SWAP1 POP JUMP JUMPDEST PUSH2 0x674 DUP3 PUSH2 0x73D JUMP JUMPDEST DUP2 ADD DUP2 DUP2 LT PUSH8 0xFFFFFFFFFFFFFFFF DUP3 GT OR ISZERO PUSH2 0x693 JUMPI PUSH2 0x692 PUSH2 0x6FA JUMP JUMPDEST JUMPDEST DUP1 PUSH1 0x40 MSTORE POP POP POP JUMP JUMPDEST PUSH32 0x4E487B7100000000000000000000000000000000000000000000000000000000 PUSH1 0x0 MSTORE PUSH1 0x22 PUSH1 0x4 MSTORE PUSH1 0x24 PUSH1 0x0 REVERT JUMPDEST PUSH32 0x4E487B7100000000000000000000000000000000000000000000000000000000 PUSH1 0x0 MSTORE PUSH1 0x32 PUSH1 0x4 MSTORE PUSH1 0x24 PUSH1 0x0 REVERT JUMPDEST PUSH32 0x4E487B7100000000000000000000000000000000000000000000000000000000 PUSH1 0x0 MSTORE PUSH1 0x41 PUSH1 0x4 MSTORE PUSH1 0x24 PUSH1 0x0 REVERT JUMPDEST PUSH1 0x0 DUP1 REVERT JUMPDEST PUSH1 0x0 DUP1 REVERT JUMPDEST PUSH1 0x0 DUP1 REVERT JUMPDEST PUSH1 0x0 DUP1 REVERT JUMPDEST PUSH1 0x0 PUSH1 0x1F NOT PUSH1 0x1F DUP4 ADD AND SWAP1 POP SWAP2 SWAP1 POP JUMP JUMPDEST PUSH2 0x757 DUP2 PUSH2 0x5ED JUMP JUMPDEST DUP2 EQ PUSH2 0x762 JUMPI PUSH1 0x0 DUP1 REVERT JUMPDEST POP JUMP INVALID LOG2 PUSH5 0x6970667358 0x22 SLT KECCAK256 0xCC 0x4C DUP5 MUL 0x5E 0xDE SHR 0x29 CODECOPY SIGNEXTEND 0xAA 0xAC SWAP16 SHR EXTCODEHASH JUMP 0x23 0xCE GAS 0xEC 0x5D 0xB9 SLT CREATE MSTORE8 CALL EXTCODECOPY SWAP8 DELEGATECALL REVERT 0xAB PUSH10 0x64736F6C634300080700 CALLER "
				},
				"gasEstimates": {
					"creation": {
						"codeDepositCost": "389400",
						"executionCost": "424",
						"totalCost": "389824"
					},
					"external": {
						"addNFT(string,uint256)": "infinite",
						"getNftName(uint256)": "infinite",
						"nftlist(uint256)": "infinite",
						"updateNFT(uint256,string)": "infinite"
					}
				},
				"methodIdentifiers": {
					"addNFT(string,uint256)": "e386a7ca",
					"getNftName(uint256)": "278ec44f",
					"nftlist(uint256)": "6c967a54",
					"updateNFT(uint256,string)": "c318d8f8"
				}
			},
			"storageLayout": {
				"storage": [
					{
						"astId": 10,
						"contract": "contracts/MyStructs.sol:MyStruct",
						"label": "nftlist",
						"offset": 0,
						"slot": "0",
						"type": "t_array(t_struct(NFT)6_storage)dyn_storage"
					}
				],
				"types": {
					"t_array(t_struct(NFT)6_storage)dyn_storage": {
						"base": "t_struct(NFT)6_storage",
						"encoding": "dynamic_array",
						"label": "struct MyStruct.NFT[]",
						"numberOfBytes": "32"
					},
					"t_string_storage": {
						"encoding": "bytes",
						"label": "string",
						"numberOfBytes": "32"
					},
					"t_struct(NFT)6_storage": {
						"encoding": "inplace",
						"label": "struct MyStruct.NFT",
						"members": [
							{
								"astId": 3,
								"contract": "contracts/MyStructs.sol:MyStruct",
								"label": "name",
								"offset": 0,
								"slot": "0",
								"type": "t_string_storage"
							},
							{
								"astId": 5,
								"contract": "contracts/MyStructs.sol:MyStruct",
								"label": "dna",
								"offset": 0,
								"slot": "1",
								"type": "t_uint256"
							}
						],
						"numberOfBytes": "64"
					},
					"t_uint256": {
						"encoding": "inplace",
						"label": "uint256",
						"numberOfBytes": "32"
					}
				}
			},
			"userdoc": {
				"kind": "user",
				"methods": {},
				"version": 1
			}
		}
	}
}