{
	"contracts/MyStructs.sol": {
		"MyStruct": {
			"abi": [
				{
					"inputs": [
						{
							"internalType": "string",
							"name": "_name",
							"type": "string"
						},
						{
							"internalType": "uint256",
							"name": "_dna",
							"type": "uint256"
						}
					],
					"name": "addNFT",
					"outputs": [],
					"stateMutability": "nonpayable",
					"type": "function"
				},
				{
					"inputs": [
						{
							"internalType": "uint256",
							"name": "_index",
							"type": "uint256"
						}
					],
					"name": "getNftName",
					"outputs": [
						{
							"internalType": "string",
							"name": "",
							"type": "string"
						}
					],
					"stateMutability": "view",
					"type": "function"
				},
				{
					"inputs": [
						{
							"internalType": "uint256",
							"name": "",
							"type": "uint256"
						}
					],
					"name": "nftlist",
					"outputs": [
						{
							"internalType": "string",
							"name": "name",
							"type": "string"
						},
						{
							"internalType": "uint256",
							"name": "dna",
							"type": "uint256"
						}
					],
					"stateMutability": "view",
					"type": "function"
				}
			],
			"devdoc": {
				"kind": "dev",
				"methods": {},
				"version": 1
			},
			"evm": {
				"assembly": "    /* \"contracts/MyStructs.sol\":74:462  contract MyStruct{\r... */\n  mstore(0x40, 0x80)\n  callvalue\n  dup1\n  iszero\n  tag_1\n  jumpi\n  0x00\n  dup1\n  revert\ntag_1:\n  pop\n  dataSize(sub_0)\n  dup1\n  dataOffset(sub_0)\n  0x00\n  codecopy\n  0x00\n  return\nstop\n\nsub_0: assembly {\n        /* \"contracts/MyStructs.sol\":74:462  contract MyStruct{\r... */\n      mstore(0x40, 0x80)\n      callvalue\n      dup1\n      iszero\n      tag_1\n      jumpi\n      0x00\n      dup1\n      revert\n    tag_1:\n      pop\n      jumpi(tag_2, lt(calldatasize, 0x04))\n      shr(0xe0, calldataload(0x00))\n      dup1\n      0x278ec44f\n      eq\n      tag_3\n      jumpi\n      dup1\n      0x6c967a54\n      eq\n      tag_4\n      jumpi\n      dup1\n      0xe386a7ca\n      eq\n      tag_5\n      jumpi\n    tag_2:\n      0x00\n      dup1\n      revert\n        /* \"contracts/MyStructs.sol\":343:459  function getNftName(uint256 _index) public view returns(string memory){\r... */\n    tag_3:\n      tag_6\n      0x04\n      dup1\n      calldatasize\n      sub\n      dup2\n      add\n      swap1\n      tag_7\n      swap2\n      swap1\n      tag_8\n      jump\t// in\n    tag_7:\n      tag_9\n      jump\t// in\n    tag_6:\n      mload(0x40)\n      tag_10\n      swap2\n      swap1\n      tag_11\n      jump\t// in\n    tag_10:\n      mload(0x40)\n      dup1\n      swap2\n      sub\n      swap1\n      return\n        /* \"contracts/MyStructs.sol\":168:188  NFT[] public nftlist */\n    tag_4:\n      tag_12\n      0x04\n      dup1\n      calldatasize\n      sub\n      dup2\n      add\n      swap1\n      tag_13\n      swap2\n      swap1\n      tag_8\n      jump\t// in\n    tag_13:\n      tag_14\n      jump\t// in\n    tag_12:\n      mload(0x40)\n      tag_15\n      swap3\n      swap2\n      swap1\n      tag_16\n      jump\t// in\n    tag_15:\n      mload(0x40)\n      dup1\n      swap2\n      sub\n      swap1\n      return\n        /* \"contracts/MyStructs.sol\":195:337  function addNFT(string memory _name, uint256 _dna)public{\r... */\n    tag_5:\n      tag_17\n      0x04\n      dup1\n      calldatasize\n      sub\n      dup2\n      add\n      swap1\n      tag_18\n      swap2\n      swap1\n      tag_19\n      jump\t// in\n    tag_18:\n      tag_20\n      jump\t// in\n    tag_17:\n      stop\n        /* \"contracts/MyStructs.sol\":343:459  function getNftName(uint256 _index) public view returns(string memory){\r... */\n    tag_9:\n        /* \"contracts/MyStructs.sol\":399:412  string memory */\n      0x60\n        /* \"contracts/MyStructs.sol\":431:438  nftlist */\n      0x00\n        /* \"contracts/MyStructs.sol\":439:445  _index */\n      dup3\n        /* \"contracts/MyStructs.sol\":431:446  nftlist[_index] */\n      dup2\n      sload\n      dup2\n      lt\n      tag_22\n      jumpi\n      tag_23\n      tag_24\n      jump\t// in\n    tag_23:\n    tag_22:\n      swap1\n      0x00\n      mstore\n      keccak256(0x00, 0x20)\n      swap1\n      0x02\n      mul\n      add\n        /* \"contracts/MyStructs.sol\":431:451  nftlist[_index].name */\n      0x00\n      add\n        /* \"contracts/MyStructs.sol\":424:451  return nftlist[_index].name */\n      dup1\n      sload\n      tag_26\n      swap1\n      tag_27\n      jump\t// in\n    tag_26:\n      dup1\n      0x1f\n      add\n      0x20\n      dup1\n      swap2\n      div\n      mul\n      0x20\n      add\n      mload(0x40)\n      swap1\n      dup2\n      add\n      0x40\n      mstore\n      dup1\n      swap3\n      swap2\n      swap1\n      dup2\n      dup2\n      mstore\n      0x20\n      add\n      dup3\n      dup1\n      sload\n      tag_28\n      swap1\n      tag_27\n      jump\t// in\n    tag_28:\n      dup1\n      iszero\n      tag_29\n      jumpi\n      dup1\n      0x1f\n      lt\n      tag_30\n      jumpi\n      0x0100\n      dup1\n      dup4\n      sload\n      div\n      mul\n      dup4\n      mstore\n      swap2\n      0x20\n      add\n      swap2\n      jump(tag_29)\n    tag_30:\n      dup3\n      add\n      swap2\n      swap1\n      0x00\n      mstore\n      keccak256(0x00, 0x20)\n      swap1\n    tag_31:\n      dup2\n      sload\n      dup2\n      mstore\n      swap1\n      0x01\n      add\n      swap1\n      0x20\n      add\n      dup1\n      dup4\n      gt\n      tag_31\n      jumpi\n      dup3\n      swap1\n      sub\n      0x1f\n      and\n      dup3\n      add\n      swap2\n    tag_29:\n      pop\n      pop\n      pop\n      pop\n      pop\n      swap1\n      pop\n        /* \"contracts/MyStructs.sol\":343:459  function getNftName(uint256 _index) public view returns(string memory){\r... */\n      swap2\n      swap1\n      pop\n      jump\t// out\n        /* \"contracts/MyStructs.sol\":168:188  NFT[] public nftlist */\n    tag_14:\n      0x00\n      dup2\n      dup2\n      sload\n      dup2\n      lt\n      tag_32\n      jumpi\n      0x00\n      dup1\n      revert\n    tag_32:\n      swap1\n      0x00\n      mstore\n      keccak256(0x00, 0x20)\n      swap1\n      0x02\n      mul\n      add\n      0x00\n      swap2\n      pop\n      swap1\n      pop\n      dup1\n      0x00\n      add\n      dup1\n      sload\n      tag_34\n      swap1\n      tag_27\n      jump\t// in\n    tag_34:\n      dup1\n      0x1f\n      add\n      0x20\n      dup1\n      swap2\n      div\n      mul\n      0x20\n      add\n      mload(0x40)\n      swap1\n      dup2\n      add\n      0x40\n      mstore\n      dup1\n      swap3\n      swap2\n      swap1\n      dup2\n      dup2\n      mstore\n      0x20\n      add\n      dup3\n      dup1\n      sload\n      tag_35\n      swap1\n      tag_27\n      jump\t// in\n    tag_35:\n      dup1\n      iszero\n      tag_36\n      jumpi\n      dup1\n      0x1f\n      lt\n      tag_37\n      jumpi\n      0x0100\n      dup1\n      dup4\n      sload\n      div\n      mul\n      dup4\n      mstore\n      swap2\n      0x20\n      add\n      swap2\n      jump(tag_36)\n    tag_37:\n      dup3\n      add\n      swap2\n      swap1\n      0x00\n      mstore\n      keccak256(0x00, 0x20)\n      swap1\n    tag_38:\n      dup2\n      sload\n      dup2\n      mstore\n      swap1\n      0x01\n      add\n      swap1\n      0x20\n      add\n      dup1\n      dup4\n      gt\n      tag_38\n      jumpi\n      dup3\n      swap1\n      sub\n      0x1f\n      and\n      dup3\n      add\n      swap2\n    tag_36:\n      pop\n      pop\n      pop\n      pop\n      pop\n      swap1\n      dup1\n      0x01\n      add\n      sload\n      swap1\n      pop\n      dup3\n      jump\t// out\n        /* \"contracts/MyStructs.sol\":195:337  function addNFT(string memory _name, uint256 _dna)public{\r... */\n    tag_20:\n        /* \"contracts/MyStructs.sol\":262:279  NFT memory newNFT */\n      0x00\n        /* \"contracts/MyStructs.sol\":282:298  NFT(_name, _dna) */\n      mload(0x40)\n      dup1\n      0x40\n      add\n      0x40\n      mstore\n      dup1\n        /* \"contracts/MyStructs.sol\":286:291  _name */\n      dup5\n        /* \"contracts/MyStructs.sol\":282:298  NFT(_name, _dna) */\n      dup2\n      mstore\n      0x20\n      add\n        /* \"contracts/MyStructs.sol\":293:297  _dna */\n      dup4\n        /* \"contracts/MyStructs.sol\":282:298  NFT(_name, _dna) */\n      dup2\n      mstore\n      pop\n        /* \"contracts/MyStructs.sol\":262:298  NFT memory newNFT = NFT(_name, _dna) */\n      swap1\n      pop\n        /* \"contracts/MyStructs.sol\":309:316  nftlist */\n      0x00\n        /* \"contracts/MyStructs.sol\":322:328  newNFT */\n      dup2\n        /* \"contracts/MyStructs.sol\":309:329  nftlist.push(newNFT) */\n      swap1\n      dup1\n      0x01\n      dup2\n      sload\n      add\n      dup1\n      dup3\n      sstore\n      dup1\n      swap2\n      pop\n      pop\n      0x01\n      swap1\n      sub\n      swap1\n      0x00\n      mstore\n      keccak256(0x00, 0x20)\n      swap1\n      0x02\n      mul\n      add\n      0x00\n      swap1\n      swap2\n      swap1\n      swap2\n      swap1\n      swap2\n      pop\n      0x00\n      dup3\n      add\n      mload\n      dup2\n      0x00\n      add\n      swap1\n      dup1\n      mload\n      swap1\n      0x20\n      add\n      swap1\n      tag_41\n      swap3\n      swap2\n      swap1\n      tag_42\n      jump\t// in\n    tag_41:\n      pop\n      0x20\n      dup3\n      add\n      mload\n      dup2\n      0x01\n      add\n      sstore\n      pop\n      pop\n        /* \"contracts/MyStructs.sol\":251:337  {\r... */\n      pop\n        /* \"contracts/MyStructs.sol\":195:337  function addNFT(string memory _name, uint256 _dna)public{\r... */\n      pop\n      pop\n      jump\t// out\n    tag_42:\n      dup3\n      dup1\n      sload\n      tag_43\n      swap1\n      tag_27\n      jump\t// in\n    tag_43:\n      swap1\n      0x00\n      mstore\n      keccak256(0x00, 0x20)\n      swap1\n      0x1f\n      add\n      0x20\n      swap1\n      div\n      dup2\n      add\n      swap3\n      dup3\n      tag_45\n      jumpi\n      0x00\n      dup6\n      sstore\n      jump(tag_44)\n    tag_45:\n      dup3\n      0x1f\n      lt\n      tag_46\n      jumpi\n      dup1\n      mload\n      not(0xff)\n      and\n      dup4\n      dup1\n      add\n      or\n      dup6\n      sstore\n      jump(tag_44)\n    tag_46:\n      dup3\n      dup1\n      add\n      0x01\n      add\n      dup6\n      sstore\n      dup3\n      iszero\n      tag_44\n      jumpi\n      swap2\n      dup3\n      add\n    tag_47:\n      dup3\n      dup2\n      gt\n      iszero\n      tag_48\n      jumpi\n      dup3\n      mload\n      dup3\n      sstore\n      swap2\n      0x20\n      add\n      swap2\n      swap1\n      0x01\n      add\n      swap1\n      jump(tag_47)\n    tag_48:\n    tag_44:\n      pop\n      swap1\n      pop\n      tag_49\n      swap2\n      swap1\n      tag_50\n      jump\t// in\n    tag_49:\n      pop\n      swap1\n      jump\t// out\n    tag_50:\n    tag_51:\n      dup1\n      dup3\n      gt\n      iszero\n      tag_52\n      jumpi\n      0x00\n      dup2\n      0x00\n      swap1\n      sstore\n      pop\n      0x01\n      add\n      jump(tag_51)\n    tag_52:\n      pop\n      swap1\n      jump\t// out\n        /* \"#utility.yul\":7:419   */\n    tag_54:\n        /* \"#utility.yul\":85:90   */\n      0x00\n        /* \"#utility.yul\":110:176   */\n      tag_56\n        /* \"#utility.yul\":126:175   */\n      tag_57\n        /* \"#utility.yul\":168:174   */\n      dup5\n        /* \"#utility.yul\":126:175   */\n      tag_58\n      jump\t// in\n    tag_57:\n        /* \"#utility.yul\":110:176   */\n      tag_59\n      jump\t// in\n    tag_56:\n        /* \"#utility.yul\":101:176   */\n      swap1\n      pop\n        /* \"#utility.yul\":199:205   */\n      dup3\n        /* \"#utility.yul\":192:197   */\n      dup2\n        /* \"#utility.yul\":185:206   */\n      mstore\n        /* \"#utility.yul\":237:241   */\n      0x20\n        /* \"#utility.yul\":230:235   */\n      dup2\n        /* \"#utility.yul\":226:242   */\n      add\n        /* \"#utility.yul\":275:278   */\n      dup5\n        /* \"#utility.yul\":266:272   */\n      dup5\n        /* \"#utility.yul\":261:264   */\n      dup5\n        /* \"#utility.yul\":257:273   */\n      add\n        /* \"#utility.yul\":254:279   */\n      gt\n        /* \"#utility.yul\":251:363   */\n      iszero\n      tag_60\n      jumpi\n        /* \"#utility.yul\":282:361   */\n      tag_61\n      tag_62\n      jump\t// in\n    tag_61:\n        /* \"#utility.yul\":251:363   */\n    tag_60:\n        /* \"#utility.yul\":372:413   */\n      tag_63\n        /* \"#utility.yul\":406:412   */\n      dup5\n        /* \"#utility.yul\":401:404   */\n      dup3\n        /* \"#utility.yul\":396:399   */\n      dup6\n        /* \"#utility.yul\":372:413   */\n      tag_64\n      jump\t// in\n    tag_63:\n        /* \"#utility.yul\":91:419   */\n      pop\n        /* \"#utility.yul\":7:419   */\n      swap4\n      swap3\n      pop\n      pop\n      pop\n      jump\t// out\n        /* \"#utility.yul\":439:779   */\n    tag_65:\n        /* \"#utility.yul\":495:500   */\n      0x00\n        /* \"#utility.yul\":544:547   */\n      dup3\n        /* \"#utility.yul\":537:541   */\n      0x1f\n        /* \"#utility.yul\":529:535   */\n      dup4\n        /* \"#utility.yul\":525:542   */\n      add\n        /* \"#utility.yul\":521:548   */\n      slt\n        /* \"#utility.yul\":511:633   */\n      tag_67\n      jumpi\n        /* \"#utility.yul\":552:631   */\n      tag_68\n      tag_69\n      jump\t// in\n    tag_68:\n        /* \"#utility.yul\":511:633   */\n    tag_67:\n        /* \"#utility.yul\":669:675   */\n      dup2\n        /* \"#utility.yul\":656:676   */\n      calldataload\n        /* \"#utility.yul\":694:773   */\n      tag_70\n        /* \"#utility.yul\":769:772   */\n      dup5\n        /* \"#utility.yul\":761:767   */\n      dup3\n        /* \"#utility.yul\":754:758   */\n      0x20\n        /* \"#utility.yul\":746:752   */\n      dup7\n        /* \"#utility.yul\":742:759   */\n      add\n        /* \"#utility.yul\":694:773   */\n      tag_54\n      jump\t// in\n    tag_70:\n        /* \"#utility.yul\":685:773   */\n      swap2\n      pop\n        /* \"#utility.yul\":501:779   */\n      pop\n        /* \"#utility.yul\":439:779   */\n      swap3\n      swap2\n      pop\n      pop\n      jump\t// out\n        /* \"#utility.yul\":785:924   */\n    tag_71:\n        /* \"#utility.yul\":831:836   */\n      0x00\n        /* \"#utility.yul\":869:875   */\n      dup2\n        /* \"#utility.yul\":856:876   */\n      calldataload\n        /* \"#utility.yul\":847:876   */\n      swap1\n      pop\n        /* \"#utility.yul\":885:918   */\n      tag_73\n        /* \"#utility.yul\":912:917   */\n      dup2\n        /* \"#utility.yul\":885:918   */\n      tag_74\n      jump\t// in\n    tag_73:\n        /* \"#utility.yul\":785:924   */\n      swap3\n      swap2\n      pop\n      pop\n      jump\t// out\n        /* \"#utility.yul\":930:1584   */\n    tag_19:\n        /* \"#utility.yul\":1008:1014   */\n      0x00\n        /* \"#utility.yul\":1016:1022   */\n      dup1\n        /* \"#utility.yul\":1065:1067   */\n      0x40\n        /* \"#utility.yul\":1053:1062   */\n      dup4\n        /* \"#utility.yul\":1044:1051   */\n      dup6\n        /* \"#utility.yul\":1040:1063   */\n      sub\n        /* \"#utility.yul\":1036:1068   */\n      slt\n        /* \"#utility.yul\":1033:1152   */\n      iszero\n      tag_76\n      jumpi\n        /* \"#utility.yul\":1071:1150   */\n      tag_77\n      tag_78\n      jump\t// in\n    tag_77:\n        /* \"#utility.yul\":1033:1152   */\n    tag_76:\n        /* \"#utility.yul\":1219:1220   */\n      0x00\n        /* \"#utility.yul\":1208:1217   */\n      dup4\n        /* \"#utility.yul\":1204:1221   */\n      add\n        /* \"#utility.yul\":1191:1222   */\n      calldataload\n        /* \"#utility.yul\":1249:1267   */\n      0xffffffffffffffff\n        /* \"#utility.yul\":1241:1247   */\n      dup2\n        /* \"#utility.yul\":1238:1268   */\n      gt\n        /* \"#utility.yul\":1235:1352   */\n      iszero\n      tag_79\n      jumpi\n        /* \"#utility.yul\":1271:1350   */\n      tag_80\n      tag_81\n      jump\t// in\n    tag_80:\n        /* \"#utility.yul\":1235:1352   */\n    tag_79:\n        /* \"#utility.yul\":1376:1439   */\n      tag_82\n        /* \"#utility.yul\":1431:1438   */\n      dup6\n        /* \"#utility.yul\":1422:1428   */\n      dup3\n        /* \"#utility.yul\":1411:1420   */\n      dup7\n        /* \"#utility.yul\":1407:1429   */\n      add\n        /* \"#utility.yul\":1376:1439   */\n      tag_65\n      jump\t// in\n    tag_82:\n        /* \"#utility.yul\":1366:1439   */\n      swap3\n      pop\n        /* \"#utility.yul\":1162:1449   */\n      pop\n        /* \"#utility.yul\":1488:1490   */\n      0x20\n        /* \"#utility.yul\":1514:1567   */\n      tag_83\n        /* \"#utility.yul\":1559:1566   */\n      dup6\n        /* \"#utility.yul\":1550:1556   */\n      dup3\n        /* \"#utility.yul\":1539:1548   */\n      dup7\n        /* \"#utility.yul\":1535:1557   */\n      add\n        /* \"#utility.yul\":1514:1567   */\n      tag_71\n      jump\t// in\n    tag_83:\n        /* \"#utility.yul\":1504:1567   */\n      swap2\n      pop\n        /* \"#utility.yul\":1459:1577   */\n      pop\n        /* \"#utility.yul\":930:1584   */\n      swap3\n      pop\n      swap3\n      swap1\n      pop\n      jump\t// out\n        /* \"#utility.yul\":1590:1919   */\n    tag_8:\n        /* \"#utility.yul\":1649:1655   */\n      0x00\n        /* \"#utility.yul\":1698:1700   */\n      0x20\n        /* \"#utility.yul\":1686:1695   */\n      dup3\n        /* \"#utility.yul\":1677:1684   */\n      dup5\n        /* \"#utility.yul\":1673:1696   */\n      sub\n        /* \"#utility.yul\":1669:1701   */\n      slt\n        /* \"#utility.yul\":1666:1785   */\n      iszero\n      tag_85\n      jumpi\n        /* \"#utility.yul\":1704:1783   */\n      tag_86\n      tag_78\n      jump\t// in\n    tag_86:\n        /* \"#utility.yul\":1666:1785   */\n    tag_85:\n        /* \"#utility.yul\":1824:1825   */\n      0x00\n        /* \"#utility.yul\":1849:1902   */\n      tag_87\n        /* \"#utility.yul\":1894:1901   */\n      dup5\n        /* \"#utility.yul\":1885:1891   */\n      dup3\n        /* \"#utility.yul\":1874:1883   */\n      dup6\n        /* \"#utility.yul\":1870:1892   */\n      add\n        /* \"#utility.yul\":1849:1902   */\n      tag_71\n      jump\t// in\n    tag_87:\n        /* \"#utility.yul\":1839:1902   */\n      swap2\n      pop\n        /* \"#utility.yul\":1795:1912   */\n      pop\n        /* \"#utility.yul\":1590:1919   */\n      swap3\n      swap2\n      pop\n      pop\n      jump\t// out\n        /* \"#utility.yul\":1925:2289   */\n    tag_88:\n        /* \"#utility.yul\":2013:2016   */\n      0x00\n        /* \"#utility.yul\":2041:2080   */\n      tag_90\n        /* \"#utility.yul\":2074:2079   */\n      dup3\n        /* \"#utility.yul\":2041:2080   */\n      tag_91\n      jump\t// in\n    tag_90:\n        /* \"#utility.yul\":2096:2167   */\n      tag_92\n        /* \"#utility.yul\":2160:2166   */\n      dup2\n        /* \"#utility.yul\":2155:2158   */\n      dup6\n        /* \"#utility.yul\":2096:2167   */\n      tag_93\n      jump\t// in\n    tag_92:\n        /* \"#utility.yul\":2089:2167   */\n      swap4\n      pop\n        /* \"#utility.yul\":2176:2228   */\n      tag_94\n        /* \"#utility.yul\":2221:2227   */\n      dup2\n        /* \"#utility.yul\":2216:2219   */\n      dup6\n        /* \"#utility.yul\":2209:2213   */\n      0x20\n        /* \"#utility.yul\":2202:2207   */\n      dup7\n        /* \"#utility.yul\":2198:2214   */\n      add\n        /* \"#utility.yul\":2176:2228   */\n      tag_95\n      jump\t// in\n    tag_94:\n        /* \"#utility.yul\":2253:2282   */\n      tag_96\n        /* \"#utility.yul\":2275:2281   */\n      dup2\n        /* \"#utility.yul\":2253:2282   */\n      tag_97\n      jump\t// in\n    tag_96:\n        /* \"#utility.yul\":2248:2251   */\n      dup5\n        /* \"#utility.yul\":2244:2283   */\n      add\n        /* \"#utility.yul\":2237:2283   */\n      swap2\n      pop\n        /* \"#utility.yul\":2017:2289   */\n      pop\n        /* \"#utility.yul\":1925:2289   */\n      swap3\n      swap2\n      pop\n      pop\n      jump\t// out\n        /* \"#utility.yul\":2295:2413   */\n    tag_98:\n        /* \"#utility.yul\":2382:2406   */\n      tag_100\n        /* \"#utility.yul\":2400:2405   */\n      dup2\n        /* \"#utility.yul\":2382:2406   */\n      tag_101\n      jump\t// in\n    tag_100:\n        /* \"#utility.yul\":2377:2380   */\n      dup3\n        /* \"#utility.yul\":2370:2407   */\n      mstore\n        /* \"#utility.yul\":2295:2413   */\n      pop\n      pop\n      jump\t// out\n        /* \"#utility.yul\":2419:2732   */\n    tag_11:\n        /* \"#utility.yul\":2532:2536   */\n      0x00\n        /* \"#utility.yul\":2570:2572   */\n      0x20\n        /* \"#utility.yul\":2559:2568   */\n      dup3\n        /* \"#utility.yul\":2555:2573   */\n      add\n        /* \"#utility.yul\":2547:2573   */\n      swap1\n      pop\n        /* \"#utility.yul\":2619:2628   */\n      dup2\n        /* \"#utility.yul\":2613:2617   */\n      dup2\n        /* \"#utility.yul\":2609:2629   */\n      sub\n        /* \"#utility.yul\":2605:2606   */\n      0x00\n        /* \"#utility.yul\":2594:2603   */\n      dup4\n        /* \"#utility.yul\":2590:2607   */\n      add\n        /* \"#utility.yul\":2583:2630   */\n      mstore\n        /* \"#utility.yul\":2647:2725   */\n      tag_103\n        /* \"#utility.yul\":2720:2724   */\n      dup2\n        /* \"#utility.yul\":2711:2717   */\n      dup5\n        /* \"#utility.yul\":2647:2725   */\n      tag_88\n      jump\t// in\n    tag_103:\n        /* \"#utility.yul\":2639:2725   */\n      swap1\n      pop\n        /* \"#utility.yul\":2419:2732   */\n      swap3\n      swap2\n      pop\n      pop\n      jump\t// out\n        /* \"#utility.yul\":2738:3161   */\n    tag_16:\n        /* \"#utility.yul\":2879:2883   */\n      0x00\n        /* \"#utility.yul\":2917:2919   */\n      0x40\n        /* \"#utility.yul\":2906:2915   */\n      dup3\n        /* \"#utility.yul\":2902:2920   */\n      add\n        /* \"#utility.yul\":2894:2920   */\n      swap1\n      pop\n        /* \"#utility.yul\":2966:2975   */\n      dup2\n        /* \"#utility.yul\":2960:2964   */\n      dup2\n        /* \"#utility.yul\":2956:2976   */\n      sub\n        /* \"#utility.yul\":2952:2953   */\n      0x00\n        /* \"#utility.yul\":2941:2950   */\n      dup4\n        /* \"#utility.yul\":2937:2954   */\n      add\n        /* \"#utility.yul\":2930:2977   */\n      mstore\n        /* \"#utility.yul\":2994:3072   */\n      tag_105\n        /* \"#utility.yul\":3067:3071   */\n      dup2\n        /* \"#utility.yul\":3058:3064   */\n      dup6\n        /* \"#utility.yul\":2994:3072   */\n      tag_88\n      jump\t// in\n    tag_105:\n        /* \"#utility.yul\":2986:3072   */\n      swap1\n      pop\n        /* \"#utility.yul\":3082:3154   */\n      tag_106\n        /* \"#utility.yul\":3150:3152   */\n      0x20\n        /* \"#utility.yul\":3139:3148   */\n      dup4\n        /* \"#utility.yul\":3135:3153   */\n      add\n        /* \"#utility.yul\":3126:3132   */\n      dup5\n        /* \"#utility.yul\":3082:3154   */\n      tag_98\n      jump\t// in\n    tag_106:\n        /* \"#utility.yul\":2738:3161   */\n      swap4\n      swap3\n      pop\n      pop\n      pop\n      jump\t// out\n        /* \"#utility.yul\":3167:3296   */\n    tag_59:\n        /* \"#utility.yul\":3201:3207   */\n      0x00\n        /* \"#utility.yul\":3228:3248   */\n      tag_108\n      tag_109\n      jump\t// in\n    tag_108:\n        /* \"#utility.yul\":3218:3248   */\n      swap1\n      pop\n        /* \"#utility.yul\":3257:3290   */\n      tag_110\n        /* \"#utility.yul\":3285:3289   */\n      dup3\n        /* \"#utility.yul\":3277:3283   */\n      dup3\n        /* \"#utility.yul\":3257:3290   */\n      tag_111\n      jump\t// in\n    tag_110:\n        /* \"#utility.yul\":3167:3296   */\n      swap2\n      swap1\n      pop\n      jump\t// out\n        /* \"#utility.yul\":3302:3377   */\n    tag_109:\n        /* \"#utility.yul\":3335:3341   */\n      0x00\n        /* \"#utility.yul\":3368:3370   */\n      0x40\n        /* \"#utility.yul\":3362:3371   */\n      mload\n        /* \"#utility.yul\":3352:3371   */\n      swap1\n      pop\n        /* \"#utility.yul\":3302:3377   */\n      swap1\n      jump\t// out\n        /* \"#utility.yul\":3383:3691   */\n    tag_58:\n        /* \"#utility.yul\":3445:3449   */\n      0x00\n        /* \"#utility.yul\":3535:3553   */\n      0xffffffffffffffff\n        /* \"#utility.yul\":3527:3533   */\n      dup3\n        /* \"#utility.yul\":3524:3554   */\n      gt\n        /* \"#utility.yul\":3521:3577   */\n      iszero\n      tag_114\n      jumpi\n        /* \"#utility.yul\":3557:3575   */\n      tag_115\n      tag_116\n      jump\t// in\n    tag_115:\n        /* \"#utility.yul\":3521:3577   */\n    tag_114:\n        /* \"#utility.yul\":3595:3624   */\n      tag_117\n        /* \"#utility.yul\":3617:3623   */\n      dup3\n        /* \"#utility.yul\":3595:3624   */\n      tag_97\n      jump\t// in\n    tag_117:\n        /* \"#utility.yul\":3587:3624   */\n      swap1\n      pop\n        /* \"#utility.yul\":3679:3683   */\n      0x20\n        /* \"#utility.yul\":3673:3677   */\n      dup2\n        /* \"#utility.yul\":3669:3684   */\n      add\n        /* \"#utility.yul\":3661:3684   */\n      swap1\n      pop\n        /* \"#utility.yul\":3383:3691   */\n      swap2\n      swap1\n      pop\n      jump\t// out\n        /* \"#utility.yul\":3697:3796   */\n    tag_91:\n        /* \"#utility.yul\":3749:3755   */\n      0x00\n        /* \"#utility.yul\":3783:3788   */\n      dup2\n        /* \"#utility.yul\":3777:3789   */\n      mload\n        /* \"#utility.yul\":3767:3789   */\n      swap1\n      pop\n        /* \"#utility.yul\":3697:3796   */\n      swap2\n      swap1\n      pop\n      jump\t// out\n        /* \"#utility.yul\":3802:3971   */\n    tag_93:\n        /* \"#utility.yul\":3886:3897   */\n      0x00\n        /* \"#utility.yul\":3920:3926   */\n      dup3\n        /* \"#utility.yul\":3915:3918   */\n      dup3\n        /* \"#utility.yul\":3908:3927   */\n      mstore\n        /* \"#utility.yul\":3960:3964   */\n      0x20\n        /* \"#utility.yul\":3955:3958   */\n      dup3\n        /* \"#utility.yul\":3951:3965   */\n      add\n        /* \"#utility.yul\":3936:3965   */\n      swap1\n      pop\n        /* \"#utility.yul\":3802:3971   */\n      swap3\n      swap2\n      pop\n      pop\n      jump\t// out\n        /* \"#utility.yul\":3977:4054   */\n    tag_101:\n        /* \"#utility.yul\":4014:4021   */\n      0x00\n        /* \"#utility.yul\":4043:4048   */\n      dup2\n        /* \"#utility.yul\":4032:4048   */\n      swap1\n      pop\n        /* \"#utility.yul\":3977:4054   */\n      swap2\n      swap1\n      pop\n      jump\t// out\n        /* \"#utility.yul\":4060:4214   */\n    tag_64:\n        /* \"#utility.yul\":4144:4150   */\n      dup3\n        /* \"#utility.yul\":4139:4142   */\n      dup2\n        /* \"#utility.yul\":4134:4137   */\n      dup4\n        /* \"#utility.yul\":4121:4151   */\n      calldatacopy\n        /* \"#utility.yul\":4206:4207   */\n      0x00\n        /* \"#utility.yul\":4197:4203   */\n      dup4\n        /* \"#utility.yul\":4192:4195   */\n      dup4\n        /* \"#utility.yul\":4188:4204   */\n      add\n        /* \"#utility.yul\":4181:4208   */\n      mstore\n        /* \"#utility.yul\":4060:4214   */\n      pop\n      pop\n      pop\n      jump\t// out\n        /* \"#utility.yul\":4220:4527   */\n    tag_95:\n        /* \"#utility.yul\":4288:4289   */\n      0x00\n        /* \"#utility.yul\":4298:4411   */\n    tag_123:\n        /* \"#utility.yul\":4312:4318   */\n      dup4\n        /* \"#utility.yul\":4309:4310   */\n      dup2\n        /* \"#utility.yul\":4306:4319   */\n      lt\n        /* \"#utility.yul\":4298:4411   */\n      iszero\n      tag_125\n      jumpi\n        /* \"#utility.yul\":4397:4398   */\n      dup1\n        /* \"#utility.yul\":4392:4395   */\n      dup3\n        /* \"#utility.yul\":4388:4399   */\n      add\n        /* \"#utility.yul\":4382:4400   */\n      mload\n        /* \"#utility.yul\":4378:4379   */\n      dup2\n        /* \"#utility.yul\":4373:4376   */\n      dup5\n        /* \"#utility.yul\":4369:4380   */\n      add\n        /* \"#utility.yul\":4362:4401   */\n      mstore\n        /* \"#utility.yul\":4334:4336   */\n      0x20\n        /* \"#utility.yul\":4331:4332   */\n      dup2\n        /* \"#utility.yul\":4327:4337   */\n      add\n        /* \"#utility.yul\":4322:4337   */\n      swap1\n      pop\n        /* \"#utility.yul\":4298:4411   */\n      jump(tag_123)\n    tag_125:\n        /* \"#utility.yul\":4429:4435   */\n      dup4\n        /* \"#utility.yul\":4426:4427   */\n      dup2\n        /* \"#utility.yul\":4423:4436   */\n      gt\n        /* \"#utility.yul\":4420:4521   */\n      iszero\n      tag_126\n      jumpi\n        /* \"#utility.yul\":4509:4510   */\n      0x00\n        /* \"#utility.yul\":4500:4506   */\n      dup5\n        /* \"#utility.yul\":4495:4498   */\n      dup5\n        /* \"#utility.yul\":4491:4507   */\n      add\n        /* \"#utility.yul\":4484:4511   */\n      mstore\n        /* \"#utility.yul\":4420:4521   */\n    tag_126:\n        /* \"#utility.yul\":4269:4527   */\n      pop\n        /* \"#utility.yul\":4220:4527   */\n      pop\n      pop\n      pop\n      jump\t// out\n        /* \"#utility.yul\":4533:4853   */\n    tag_27:\n        /* \"#utility.yul\":4577:4583   */\n      0x00\n        /* \"#utility.yul\":4614:4615   */\n      0x02\n        /* \"#utility.yul\":4608:4612   */\n      dup3\n        /* \"#utility.yul\":4604:4616   */\n      div\n        /* \"#utility.yul\":4594:4616   */\n      swap1\n      pop\n        /* \"#utility.yul\":4661:4662   */\n      0x01\n        /* \"#utility.yul\":4655:4659   */\n      dup3\n        /* \"#utility.yul\":4651:4663   */\n      and\n        /* \"#utility.yul\":4682:4700   */\n      dup1\n        /* \"#utility.yul\":4672:4753   */\n      tag_128\n      jumpi\n        /* \"#utility.yul\":4738:4742   */\n      0x7f\n        /* \"#utility.yul\":4730:4736   */\n      dup3\n        /* \"#utility.yul\":4726:4743   */\n      and\n        /* \"#utility.yul\":4716:4743   */\n      swap2\n      pop\n        /* \"#utility.yul\":4672:4753   */\n    tag_128:\n        /* \"#utility.yul\":4800:4802   */\n      0x20\n        /* \"#utility.yul\":4792:4798   */\n      dup3\n        /* \"#utility.yul\":4789:4803   */\n      lt\n        /* \"#utility.yul\":4769:4787   */\n      dup2\n        /* \"#utility.yul\":4766:4804   */\n      eq\n        /* \"#utility.yul\":4763:4847   */\n      iszero\n      tag_129\n      jumpi\n        /* \"#utility.yul\":4819:4837   */\n      tag_130\n      tag_131\n      jump\t// in\n    tag_130:\n        /* \"#utility.yul\":4763:4847   */\n    tag_129:\n        /* \"#utility.yul\":4584:4853   */\n      pop\n        /* \"#utility.yul\":4533:4853   */\n      swap2\n      swap1\n      pop\n      jump\t// out\n        /* \"#utility.yul\":4859:5140   */\n    tag_111:\n        /* \"#utility.yul\":4942:4969   */\n      tag_133\n        /* \"#utility.yul\":4964:4968   */\n      dup3\n        /* \"#utility.yul\":4942:4969   */\n      tag_97\n      jump\t// in\n    tag_133:\n        /* \"#utility.yul\":4934:4940   */\n      dup2\n        /* \"#utility.yul\":4930:4970   */\n      add\n        /* \"#utility.yul\":5072:5078   */\n      dup2\n        /* \"#utility.yul\":5060:5070   */\n      dup2\n        /* \"#utility.yul\":5057:5079   */\n      lt\n        /* \"#utility.yul\":5036:5054   */\n      0xffffffffffffffff\n        /* \"#utility.yul\":5024:5034   */\n      dup3\n        /* \"#utility.yul\":5021:5055   */\n      gt\n        /* \"#utility.yul\":5018:5080   */\n      or\n        /* \"#utility.yul\":5015:5103   */\n      iszero\n      tag_134\n      jumpi\n        /* \"#utility.yul\":5083:5101   */\n      tag_135\n      tag_116\n      jump\t// in\n    tag_135:\n        /* \"#utility.yul\":5015:5103   */\n    tag_134:\n        /* \"#utility.yul\":5123:5133   */\n      dup1\n        /* \"#utility.yul\":5119:5121   */\n      0x40\n        /* \"#utility.yul\":5112:5134   */\n      mstore\n        /* \"#utility.yul\":4902:5140   */\n      pop\n        /* \"#utility.yul\":4859:5140   */\n      pop\n      pop\n      jump\t// out\n        /* \"#utility.yul\":5146:5326   */\n    tag_131:\n        /* \"#utility.yul\":5194:5271   */\n      0x4e487b7100000000000000000000000000000000000000000000000000000000\n        /* \"#utility.yul\":5191:5192   */\n      0x00\n        /* \"#utility.yul\":5184:5272   */\n      mstore\n        /* \"#utility.yul\":5291:5295   */\n      0x22\n        /* \"#utility.yul\":5288:5289   */\n      0x04\n        /* \"#utility.yul\":5281:5296   */\n      mstore\n        /* \"#utility.yul\":5315:5319   */\n      0x24\n        /* \"#utility.yul\":5312:5313   */\n      0x00\n        /* \"#utility.yul\":5305:5320   */\n      revert\n        /* \"#utility.yul\":5332:5512   */\n    tag_24:\n        /* \"#utility.yul\":5380:5457   */\n      0x4e487b7100000000000000000000000000000000000000000000000000000000\n        /* \"#utility.yul\":5377:5378   */\n      0x00\n        /* \"#utility.yul\":5370:5458   */\n      mstore\n        /* \"#utility.yul\":5477:5481   */\n      0x32\n        /* \"#utility.yul\":5474:5475   */\n      0x04\n        /* \"#utility.yul\":5467:5482   */\n      mstore\n        /* \"#utility.yul\":5501:5505   */\n      0x24\n        /* \"#utility.yul\":5498:5499   */\n      0x00\n        /* \"#utility.yul\":5491:5506   */\n      revert\n        /* \"#utility.yul\":5518:5698   */\n    tag_116:\n        /* \"#utility.yul\":5566:5643   */\n      0x4e487b7100000000000000000000000000000000000000000000000000000000\n        /* \"#utility.yul\":5563:5564   */\n      0x00\n        /* \"#utility.yul\":5556:5644   */\n      mstore\n        /* \"#utility.yul\":5663:5667   */\n      0x41\n        /* \"#utility.yul\":5660:5661   */\n      0x04\n        /* \"#utility.yul\":5653:5668   */\n      mstore\n        /* \"#utility.yul\":5687:5691   */\n      0x24\n        /* \"#utility.yul\":5684:5685   */\n      0x00\n        /* \"#utility.yul\":5677:5692   */\n      revert\n        /* \"#utility.yul\":5704:5821   */\n    tag_69:\n        /* \"#utility.yul\":5813:5814   */\n      0x00\n        /* \"#utility.yul\":5810:5811   */\n      dup1\n        /* \"#utility.yul\":5803:5815   */\n      revert\n        /* \"#utility.yul\":5827:5944   */\n    tag_62:\n        /* \"#utility.yul\":5936:5937   */\n      0x00\n        /* \"#utility.yul\":5933:5934   */\n      dup1\n        /* \"#utility.yul\":5926:5938   */\n      revert\n        /* \"#utility.yul\":5950:6067   */\n    tag_81:\n        /* \"#utility.yul\":6059:6060   */\n      0x00\n        /* \"#utility.yul\":6056:6057   */\n      dup1\n        /* \"#utility.yul\":6049:6061   */\n      revert\n        /* \"#utility.yul\":6073:6190   */\n    tag_78:\n        /* \"#utility.yul\":6182:6183   */\n      0x00\n        /* \"#utility.yul\":6179:6180   */\n      dup1\n        /* \"#utility.yul\":6172:6184   */\n      revert\n        /* \"#utility.yul\":6196:6298   */\n    tag_97:\n        /* \"#utility.yul\":6237:6243   */\n      0x00\n        /* \"#utility.yul\":6288:6290   */\n      0x1f\n        /* \"#utility.yul\":6284:6291   */\n      not\n        /* \"#utility.yul\":6279:6281   */\n      0x1f\n        /* \"#utility.yul\":6272:6277   */\n      dup4\n        /* \"#utility.yul\":6268:6282   */\n      add\n        /* \"#utility.yul\":6264:6292   */\n      and\n        /* \"#utility.yul\":6254:6292   */\n      swap1\n      pop\n        /* \"#utility.yul\":6196:6298   */\n      swap2\n      swap1\n      pop\n      jump\t// out\n        /* \"#utility.yul\":6304:6426   */\n    tag_74:\n        /* \"#utility.yul\":6377:6401   */\n      tag_145\n        /* \"#utility.yul\":6395:6400   */\n      dup2\n        /* \"#utility.yul\":6377:6401   */\n      tag_101\n      jump\t// in\n    tag_145:\n        /* \"#utility.yul\":6370:6375   */\n      dup2\n        /* \"#utility.yul\":6367:6402   */\n      eq\n        /* \"#utility.yul\":6357:6420   */\n      tag_146\n      jumpi\n        /* \"#utility.yul\":6416:6417   */\n      0x00\n        /* \"#utility.yul\":6413:6414   */\n      dup1\n        /* \"#utility.yul\":6406:6418   */\n      revert\n        /* \"#utility.yul\":6357:6420   */\n    tag_146:\n        /* \"#utility.yul\":6304:6426   */\n      pop\n      jump\t// out\n\n    auxdata: 0xa264697066735822122045fd21a30678381ccceafc0c4b75b2598202d254b3b2ee3d210000aaf6167f4864736f6c63430008070033\n}\n",
				"bytecode": {
					"linkReferences": {},
					"object": "608060405234801561001057600080fd5b50610714806100206000396000f3fe608060405234801561001057600080fd5b50600436106100415760003560e01c8063278ec44f146100465780636c967a5414610076578063e386a7ca146100a7575b600080fd5b610060600480360381019061005b919061042d565b6100c3565b60405161006d91906104a2565b60405180910390f35b610090600480360381019061008b919061042d565b61017a565b60405161009e9291906104c4565b60405180910390f35b6100c160048036038101906100bc91906103d1565b610236565b005b6060600082815481106100d9576100d8610644565b5b906000526020600020906002020160000180546100f5906105b2565b80601f0160208091040260200160405190810160405280929190818152602001828054610121906105b2565b801561016e5780601f106101435761010080835404028352916020019161016e565b820191906000526020600020905b81548152906001019060200180831161015157829003601f168201915b50505050509050919050565b6000818154811061018a57600080fd5b90600052602060002090600202016000915090508060000180546101ad906105b2565b80601f01602080910402602001604051908101604052809291908181526020018280546101d9906105b2565b80156102265780601f106101fb57610100808354040283529160200191610226565b820191906000526020600020905b81548152906001019060200180831161020957829003601f168201915b5050505050908060010154905082565b60006040518060400160405280848152602001838152509050600081908060018154018082558091505060019003906000526020600020906002020160009091909190915060008201518160000190805190602001906102979291906102a9565b50602082015181600101555050505050565b8280546102b5906105b2565b90600052602060002090601f0160209004810192826102d7576000855561031e565b82601f106102f057805160ff191683800117855561031e565b8280016001018555821561031e579182015b8281111561031d578251825591602001919060010190610302565b5b50905061032b919061032f565b5090565b5b80821115610348576000816000905550600101610330565b5090565b600061035f61035a84610519565b6104f4565b90508281526020810184848401111561037b5761037a6106a7565b5b610386848285610570565b509392505050565b600082601f8301126103a3576103a26106a2565b5b81356103b384826020860161034c565b91505092915050565b6000813590506103cb816106c7565b92915050565b600080604083850312156103e8576103e76106b1565b5b600083013567ffffffffffffffff811115610406576104056106ac565b5b6104128582860161038e565b9250506020610423858286016103bc565b9150509250929050565b600060208284031215610443576104426106b1565b5b6000610451848285016103bc565b91505092915050565b60006104658261054a565b61046f8185610555565b935061047f81856020860161057f565b610488816106b6565b840191505092915050565b61049c81610566565b82525050565b600060208201905081810360008301526104bc818461045a565b905092915050565b600060408201905081810360008301526104de818561045a565b90506104ed6020830184610493565b9392505050565b60006104fe61050f565b905061050a82826105e4565b919050565b6000604051905090565b600067ffffffffffffffff82111561053457610533610673565b5b61053d826106b6565b9050602081019050919050565b600081519050919050565b600082825260208201905092915050565b6000819050919050565b82818337600083830152505050565b60005b8381101561059d578082015181840152602081019050610582565b838111156105ac576000848401525b50505050565b600060028204905060018216806105ca57607f821691505b602082108114156105de576105dd610615565b5b50919050565b6105ed826106b6565b810181811067ffffffffffffffff8211171561060c5761060b610673565b5b80604052505050565b7f4e487b7100000000000000000000000000000000000000000000000000000000600052602260045260246000fd5b7f4e487b7100000000000000000000000000000000000000000000000000000000600052603260045260246000fd5b7f4e487b7100000000000000000000000000000000000000000000000000000000600052604160045260246000fd5b600080fd5b600080fd5b600080fd5b600080fd5b6000601f19601f8301169050919050565b6106d081610566565b81146106db57600080fd5b5056fea264697066735822122045fd21a30678381ccceafc0c4b75b2598202d254b3b2ee3d210000aaf6167f4864736f6c63430008070033",
					"opcodes": "PUSH1 0x80 PUSH1 0x40 MSTORE CALLVALUE DUP1 ISZERO PUSH2 0x10 JUMPI PUSH1 0x0 DUP1 REVERT JUMPDEST POP PUSH2 0x714 DUP1 PUSH2 0x20 PUSH1 0x0 CODECOPY PUSH1 0x0 RETURN INVALID PUSH1 0x80 PUSH1 0x40 MSTORE CALLVALUE DUP1 ISZERO PUSH2 0x10 JUMPI PUSH1 0x0 DUP1 REVERT JUMPDEST POP PUSH1 0x4 CALLDATASIZE LT PUSH2 0x41 JUMPI PUSH1 0x0 CALLDATALOAD PUSH1 0xE0 SHR DUP1 PUSH4 0x278EC44F EQ PUSH2 0x46 JUMPI DUP1 PUSH4 0x6C967A54 EQ PUSH2 0x76 JUMPI DUP1 PUSH4 0xE386A7CA EQ PUSH2 0xA7 JUMPI JUMPDEST PUSH1 0x0 DUP1 REVERT JUMPDEST PUSH2 0x60 PUSH1 0x4 DUP1 CALLDATASIZE SUB DUP2 ADD SWAP1 PUSH2 0x5B SWAP2 SWAP1 PUSH2 0x42D JUMP JUMPDEST PUSH2 0xC3 JUMP JUMPDEST PUSH1 0x40 MLOAD PUSH2 0x6D SWAP2 SWAP1 PUSH2 0x4A2 JUMP JUMPDEST PUSH1 0x40 MLOAD DUP1 SWAP2 SUB SWAP1 RETURN JUMPDEST PUSH2 0x90 PUSH1 0x4 DUP1 CALLDATASIZE SUB DUP2 ADD SWAP1 PUSH2 0x8B SWAP2 SWAP1 PUSH2 0x42D JUMP JUMPDEST PUSH2 0x17A JUMP JUMPDEST PUSH1 0x40 MLOAD PUSH2 0x9E SWAP3 SWAP2 SWAP1 PUSH2 0x4C4 JUMP JUMPDEST PUSH1 0x40 MLOAD DUP1 SWAP2 SUB SWAP1 RETURN JUMPDEST PUSH2 0xC1 PUSH1 0x4 DUP1 CALLDATASIZE SUB DUP2 ADD SWAP1 PUSH2 0xBC SWAP2 SWAP1 PUSH2 0x3D1 JUMP JUMPDEST PUSH2 0x236 JUMP JUMPDEST STOP JUMPDEST PUSH1 0x60 PUSH1 0x0 DUP3 DUP2 SLOAD DUP2 LT PUSH2 0xD9 JUMPI PUSH2 0xD8 PUSH2 0x644 JUMP JUMPDEST JUMPDEST SWAP1 PUSH1 0x0 MSTORE PUSH1 0x20 PUSH1 0x0 KECCAK256 SWAP1 PUSH1 0x2 MUL ADD PUSH1 0x0 ADD DUP1 SLOAD PUSH2 0xF5 SWAP1 PUSH2 0x5B2 JUMP JUMPDEST DUP1 PUSH1 0x1F ADD PUSH1 0x20 DUP1 SWAP2 DIV MUL PUSH1 0x20 ADD PUSH1 0x40 MLOAD SWAP1 DUP2 ADD PUSH1 0x40 MSTORE DUP1 SWAP3 SWAP2 SWAP1 DUP2 DUP2 MSTORE PUSH1 0x20 ADD DUP3 DUP1 SLOAD PUSH2 0x121 SWAP1 PUSH2 0x5B2 JUMP JUMPDEST DUP1 ISZERO PUSH2 0x16E JUMPI DUP1 PUSH1 0x1F LT PUSH2 0x143 JUMPI PUSH2 0x100 DUP1 DUP4 SLOAD DIV MUL DUP4 MSTORE SWAP2 PUSH1 0x20 ADD SWAP2 PUSH2 0x16E JUMP JUMPDEST DUP3 ADD SWAP2 SWAP1 PUSH1 0x0 MSTORE PUSH1 0x20 PUSH1 0x0 KECCAK256 SWAP1 JUMPDEST DUP2 SLOAD DUP2 MSTORE SWAP1 PUSH1 0x1 ADD SWAP1 PUSH1 0x20 ADD DUP1 DUP4 GT PUSH2 0x151 JUMPI DUP3 SWAP1 SUB PUSH1 0x1F AND DUP3 ADD SWAP2 JUMPDEST POP POP POP POP POP SWAP1 POP SWAP2 SWAP1 POP JUMP JUMPDEST PUSH1 0x0 DUP2 DUP2 SLOAD DUP2 LT PUSH2 0x18A JUMPI PUSH1 0x0 DUP1 REVERT JUMPDEST SWAP1 PUSH1 0x0 MSTORE PUSH1 0x20 PUSH1 0x0 KECCAK256 SWAP1 PUSH1 0x2 MUL ADD PUSH1 0x0 SWAP2 POP SWAP1 POP DUP1 PUSH1 0x0 ADD DUP1 SLOAD PUSH2 0x1AD SWAP1 PUSH2 0x5B2 JUMP JUMPDEST DUP1 PUSH1 0x1F ADD PUSH1 0x20 DUP1 SWAP2 DIV MUL PUSH1 0x20 ADD PUSH1 0x40 MLOAD SWAP1 DUP2 ADD PUSH1 0x40 MSTORE DUP1 SWAP3 SWAP2 SWAP1 DUP2 DUP2 MSTORE PUSH1 0x20 ADD DUP3 DUP1 SLOAD PUSH2 0x1D9 SWAP1 PUSH2 0x5B2 JUMP JUMPDEST DUP1 ISZERO PUSH2 0x226 JUMPI DUP1 PUSH1 0x1F LT PUSH2 0x1FB JUMPI PUSH2 0x100 DUP1 DUP4 SLOAD DIV MUL DUP4 MSTORE SWAP2 PUSH1 0x20 ADD SWAP2 PUSH2 0x226 JUMP JUMPDEST DUP3 ADD SWAP2 SWAP1 PUSH1 0x0 MSTORE PUSH1 0x20 PUSH1 0x0 KECCAK256 SWAP1 JUMPDEST DUP2 SLOAD DUP2 MSTORE SWAP1 PUSH1 0x1 ADD SWAP1 PUSH1 0x20 ADD DUP1 DUP4 GT PUSH2 0x209 JUMPI DUP3 SWAP1 SUB PUSH1 0x1F AND DUP3 ADD SWAP2 JUMPDEST POP POP POP POP POP SWAP1 DUP1 PUSH1 0x1 ADD SLOAD SWAP1 POP DUP3 JUMP JUMPDEST PUSH1 0x0 PUSH1 0x40 MLOAD DUP1 PUSH1 0x40 ADD PUSH1 0x40 MSTORE DUP1 DUP5 DUP2 MSTORE PUSH1 0x20 ADD DUP4 DUP2 MSTORE POP SWAP1 POP PUSH1 0x0 DUP2 SWAP1 DUP1 PUSH1 0x1 DUP2 SLOAD ADD DUP1 DUP3 SSTORE DUP1 SWAP2 POP POP PUSH1 0x1 SWAP1 SUB SWAP1 PUSH1 0x0 MSTORE PUSH1 0x20 PUSH1 0x0 KECCAK256 SWAP1 PUSH1 0x2 MUL ADD PUSH1 0x0 SWAP1 SWAP2 SWAP1 SWAP2 SWAP1 SWAP2 POP PUSH1 0x0 DUP3 ADD MLOAD DUP2 PUSH1 0x0 ADD SWAP1 DUP1 MLOAD SWAP1 PUSH1 0x20 ADD SWAP1 PUSH2 0x297 SWAP3 SWAP2 SWAP1 PUSH2 0x2A9 JUMP JUMPDEST POP PUSH1 0x20 DUP3 ADD MLOAD DUP2 PUSH1 0x1 ADD SSTORE POP POP POP POP POP JUMP JUMPDEST DUP3 DUP1 SLOAD PUSH2 0x2B5 SWAP1 PUSH2 0x5B2 JUMP JUMPDEST SWAP1 PUSH1 0x0 MSTORE PUSH1 0x20 PUSH1 0x0 KECCAK256 SWAP1 PUSH1 0x1F ADD PUSH1 0x20 SWAP1 DIV DUP2 ADD SWAP3 DUP3 PUSH2 0x2D7 JUMPI PUSH1 0x0 DUP6 SSTORE PUSH2 0x31E JUMP JUMPDEST DUP3 PUSH1 0x1F LT PUSH2 0x2F0 JUMPI DUP1 MLOAD PUSH1 0xFF NOT AND DUP4 DUP1 ADD OR DUP6 SSTORE PUSH2 0x31E JUMP JUMPDEST DUP3 DUP1 ADD PUSH1 0x1 ADD DUP6 SSTORE DUP3 ISZERO PUSH2 0x31E JUMPI SWAP2 DUP3 ADD JUMPDEST DUP3 DUP2 GT ISZERO PUSH2 0x31D JUMPI DUP3 MLOAD DUP3 SSTORE SWAP2 PUSH1 0x20 ADD SWAP2 SWAP1 PUSH1 0x1 ADD SWAP1 PUSH2 0x302 JUMP JUMPDEST JUMPDEST POP SWAP1 POP PUSH2 0x32B SWAP2 SWAP1 PUSH2 0x32F JUMP JUMPDEST POP SWAP1 JUMP JUMPDEST JUMPDEST DUP1 DUP3 GT ISZERO PUSH2 0x348 JUMPI PUSH1 0x0 DUP2 PUSH1 0x0 SWAP1 SSTORE POP PUSH1 0x1 ADD PUSH2 0x330 JUMP JUMPDEST POP SWAP1 JUMP JUMPDEST PUSH1 0x0 PUSH2 0x35F PUSH2 0x35A DUP5 PUSH2 0x519 JUMP JUMPDEST PUSH2 0x4F4 JUMP JUMPDEST SWAP1 POP DUP3 DUP2 MSTORE PUSH1 0x20 DUP2 ADD DUP5 DUP5 DUP5 ADD GT ISZERO PUSH2 0x37B JUMPI PUSH2 0x37A PUSH2 0x6A7 JUMP JUMPDEST JUMPDEST PUSH2 0x386 DUP5 DUP3 DUP6 PUSH2 0x570 JUMP JUMPDEST POP SWAP4 SWAP3 POP POP POP JUMP JUMPDEST PUSH1 0x0 DUP3 PUSH1 0x1F DUP4 ADD SLT PUSH2 0x3A3 JUMPI PUSH2 0x3A2 PUSH2 0x6A2 JUMP JUMPDEST JUMPDEST DUP2 CALLDATALOAD PUSH2 0x3B3 DUP5 DUP3 PUSH1 0x20 DUP7 ADD PUSH2 0x34C JUMP JUMPDEST SWAP2 POP POP SWAP3 SWAP2 POP POP JUMP JUMPDEST PUSH1 0x0 DUP2 CALLDATALOAD SWAP1 POP PUSH2 0x3CB DUP2 PUSH2 0x6C7 JUMP JUMPDEST SWAP3 SWAP2 POP POP JUMP JUMPDEST PUSH1 0x0 DUP1 PUSH1 0x40 DUP4 DUP6 SUB SLT ISZERO PUSH2 0x3E8 JUMPI PUSH2 0x3E7 PUSH2 0x6B1 JUMP JUMPDEST JUMPDEST PUSH1 0x0 DUP4 ADD CALLDATALOAD PUSH8 0xFFFFFFFFFFFFFFFF DUP2 GT ISZERO PUSH2 0x406 JUMPI PUSH2 0x405 PUSH2 0x6AC JUMP JUMPDEST JUMPDEST PUSH2 0x412 DUP6 DUP3 DUP7 ADD PUSH2 0x38E JUMP JUMPDEST SWAP3 POP POP PUSH1 0x20 PUSH2 0x423 DUP6 DUP3 DUP7 ADD PUSH2 0x3BC JUMP JUMPDEST SWAP2 POP POP SWAP3 POP SWAP3 SWAP1 POP JUMP JUMPDEST PUSH1 0x0 PUSH1 0x20 DUP3 DUP5 SUB SLT ISZERO PUSH2 0x443 JUMPI PUSH2 0x442 PUSH2 0x6B1 JUMP JUMPDEST JUMPDEST PUSH1 0x0 PUSH2 0x451 DUP5 DUP3 DUP6 ADD PUSH2 0x3BC JUMP JUMPDEST SWAP2 POP POP SWAP3 SWAP2 POP POP JUMP JUMPDEST PUSH1 0x0 PUSH2 0x465 DUP3 PUSH2 0x54A JUMP JUMPDEST PUSH2 0x46F DUP2 DUP6 PUSH2 0x555 JUMP JUMPDEST SWAP4 POP PUSH2 0x47F DUP2 DUP6 PUSH1 0x20 DUP7 ADD PUSH2 0x57F JUMP JUMPDEST PUSH2 0x488 DUP2 PUSH2 0x6B6 JUMP JUMPDEST DUP5 ADD SWAP2 POP POP SWAP3 SWAP2 POP POP JUMP JUMPDEST PUSH2 0x49C DUP2 PUSH2 0x566 JUMP JUMPDEST DUP3 MSTORE POP POP JUMP JUMPDEST PUSH1 0x0 PUSH1 0x20 DUP3 ADD SWAP1 POP DUP2 DUP2 SUB PUSH1 0x0 DUP4 ADD MSTORE PUSH2 0x4BC DUP2 DUP5 PUSH2 0x45A JUMP JUMPDEST SWAP1 POP SWAP3 SWAP2 POP POP JUMP JUMPDEST PUSH1 0x0 PUSH1 0x40 DUP3 ADD SWAP1 POP DUP2 DUP2 SUB PUSH1 0x0 DUP4 ADD MSTORE PUSH2 0x4DE DUP2 DUP6 PUSH2 0x45A JUMP JUMPDEST SWAP1 POP PUSH2 0x4ED PUSH1 0x20 DUP4 ADD DUP5 PUSH2 0x493 JUMP JUMPDEST SWAP4 SWAP3 POP POP POP JUMP JUMPDEST PUSH1 0x0 PUSH2 0x4FE PUSH2 0x50F JUMP JUMPDEST SWAP1 POP PUSH2 0x50A DUP3 DUP3 PUSH2 0x5E4 JUMP JUMPDEST SWAP2 SWAP1 POP JUMP JUMPDEST PUSH1 0x0 PUSH1 0x40 MLOAD SWAP1 POP SWAP1 JUMP JUMPDEST PUSH1 0x0 PUSH8 0xFFFFFFFFFFFFFFFF DUP3 GT ISZERO PUSH2 0x534 JUMPI PUSH2 0x533 PUSH2 0x673 JUMP JUMPDEST JUMPDEST PUSH2 0x53D DUP3 PUSH2 0x6B6 JUMP JUMPDEST SWAP1 POP PUSH1 0x20 DUP2 ADD SWAP1 POP SWAP2 SWAP1 POP JUMP JUMPDEST PUSH1 0x0 DUP2 MLOAD SWAP1 POP SWAP2 SWAP1 POP JUMP JUMPDEST PUSH1 0x0 DUP3 DUP3 MSTORE PUSH1 0x20 DUP3 ADD SWAP1 POP SWAP3 SWAP2 POP POP JUMP JUMPDEST PUSH1 0x0 DUP2 SWAP1 POP SWAP2 SWAP1 POP JUMP JUMPDEST DUP3 DUP2 DUP4 CALLDATACOPY PUSH1 0x0 DUP4 DUP4 ADD MSTORE POP POP POP JUMP JUMPDEST PUSH1 0x0 JUMPDEST DUP4 DUP2 LT ISZERO PUSH2 0x59D JUMPI DUP1 DUP3 ADD MLOAD DUP2 DUP5 ADD MSTORE PUSH1 0x20 DUP2 ADD SWAP1 POP PUSH2 0x582 JUMP JUMPDEST DUP4 DUP2 GT ISZERO PUSH2 0x5AC JUMPI PUSH1 0x0 DUP5 DUP5 ADD MSTORE JUMPDEST POP POP POP POP JUMP JUMPDEST PUSH1 0x0 PUSH1 0x2 DUP3 DIV SWAP1 POP PUSH1 0x1 DUP3 AND DUP1 PUSH2 0x5CA JUMPI PUSH1 0x7F DUP3 AND SWAP2 POP JUMPDEST PUSH1 0x20 DUP3 LT DUP2 EQ ISZERO PUSH2 0x5DE JUMPI PUSH2 0x5DD PUSH2 0x615 JUMP JUMPDEST JUMPDEST POP SWAP2 SWAP1 POP JUMP JUMPDEST PUSH2 0x5ED DUP3 PUSH2 0x6B6 JUMP JUMPDEST DUP2 ADD DUP2 DUP2 LT PUSH8 0xFFFFFFFFFFFFFFFF DUP3 GT OR ISZERO PUSH2 0x60C JUMPI PUSH2 0x60B PUSH2 0x673 JUMP JUMPDEST JUMPDEST DUP1 PUSH1 0x40 MSTORE POP POP POP JUMP JUMPDEST PUSH32 0x4E487B7100000000000000000000000000000000000000000000000000000000 PUSH1 0x0 MSTORE PUSH1 0x22 PUSH1 0x4 MSTORE PUSH1 0x24 PUSH1 0x0 REVERT JUMPDEST PUSH32 0x4E487B7100000000000000000000000000000000000000000000000000000000 PUSH1 0x0 MSTORE PUSH1 0x32 PUSH1 0x4 MSTORE PUSH1 0x24 PUSH1 0x0 REVERT JUMPDEST PUSH32 0x4E487B7100000000000000000000000000000000000000000000000000000000 PUSH1 0x0 MSTORE PUSH1 0x41 PUSH1 0x4 MSTORE PUSH1 0x24 PUSH1 0x0 REVERT JUMPDEST PUSH1 0x0 DUP1 REVERT JUMPDEST PUSH1 0x0 DUP1 REVERT JUMPDEST PUSH1 0x0 DUP1 REVERT JUMPDEST PUSH1 0x0 DUP1 REVERT JUMPDEST PUSH1 0x0 PUSH1 0x1F NOT PUSH1 0x1F DUP4 ADD AND SWAP1 POP SWAP2 SWAP1 POP JUMP JUMPDEST PUSH2 0x6D0 DUP2 PUSH2 0x566 JUMP JUMPDEST DUP2 EQ PUSH2 0x6DB JUMPI PUSH1 0x0 DUP1 REVERT JUMPDEST POP JUMP INVALID LOG2 PUSH5 0x6970667358 0x22 SLT KECCAK256 GASLIMIT REVERT 0x21 LOG3 MOD PUSH25 0x381CCCEAFC0C4B75B2598202D254B3B2EE3D210000AAF6167F BASEFEE PUSH5 0x736F6C6343 STOP ADDMOD SMOD STOP CALLER "
				},
				"gasEstimates": {
					"creation": {
						"codeDepositCost": "362400",
						"executionCost": "399",
						"totalCost": "362799"
					},
					"external": {
						"addNFT(string,uint256)": "infinite",
						"getNftName(uint256)": "infinite",
						"nftlist(uint256)": "infinite"
					}
				},
				"methodIdentifiers": {
					"addNFT(string,uint256)": "e386a7ca",
					"getNftName(uint256)": "278ec44f",
					"nftlist(uint256)": "6c967a54"
				}
			},
			"storageLayout": {
				"storage": [
					{
						"astId": 10,
						"contract": "contracts/MyStructs.sol:MyStruct",
						"label": "nftlist",
						"offset": 0,
						"slot": "0",
						"type": "t_array(t_struct(NFT)6_storage)dyn_storage"
					}
				],
				"types": {
					"t_array(t_struct(NFT)6_storage)dyn_storage": {
						"base": "t_struct(NFT)6_storage",
						"encoding": "dynamic_array",
						"label": "struct MyStruct.NFT[]",
						"numberOfBytes": "32"
					},
					"t_string_storage": {
						"encoding": "bytes",
						"label": "string",
						"numberOfBytes": "32"
					},
					"t_struct(NFT)6_storage": {
						"encoding": "inplace",
						"label": "struct MyStruct.NFT",
						"members": [
							{
								"astId": 3,
								"contract": "contracts/MyStructs.sol:MyStruct",
								"label": "name",
								"offset": 0,
								"slot": "0",
								"type": "t_string_storage"
							},
							{
								"astId": 5,
								"contract": "contracts/MyStructs.sol:MyStruct",
								"label": "dna",
								"offset": 0,
								"slot": "1",
								"type": "t_uint256"
							}
						],
						"numberOfBytes": "64"
					},
					"t_uint256": {
						"encoding": "inplace",
						"label": "uint256",
						"numberOfBytes": "32"
					}
				}
			},
			"userdoc": {
				"kind": "user",
				"methods": {},
				"version": 1
			}
		}
	}
}